:020000040001F9
:10B0000040420020BDB10100D7B10100D9B101001B
:10B010000000000000000000000000000000000030
:10B02000000000000000000000000000DBB1010093
:10B030000000000000000000DDB10100DFB10100F0
:10B04000E1B10100E1B10100DDBA0100E1B10100AF
:10B05000E1B101000000000075B50100E1B101009F
:10B06000E1B10100E1B10100E1B10100E1B1010094
:10B07000E1B10100E1B10100E1B10100E1B1010084
:10B08000E1B101000DB70100E1B10100E1B1010042
:10B0900009BA0100E1B1010011BA0100E1B10100FA
:10B0A000E1B10100E1B1010000000000000000007A
:10B0B0000000000000000000000000000000000090
:10B0C00000F002F800F03EF80CA030C80838241850
:10B0D0002D18A246671EAB4654465D46AC4201D1D0
:10B0E00000F030F87E460F3E0FCCB64601263342C4
:10B0F00000D0FB1AA246AB46334318475C5A000007
:10B100007C5A0000103A02D378C878C1FAD85207A6
:10B1100001D330C830C101D504680C60704700000D
:10B120000023002400250026103A01D378C1FBD863
:10B13000520700D330C100D50B6070471FB51FBD4B
:10B1400010B510BD00F0EBF91146FFF7F7FF03F063
:10B150001FFE00F003FA03B4FFF7F2FF03BC00F098
:10B160004DFE0000401E00BF00BF00BF00BF00BF7B
:10B1700000BF00BF00BF00BF00BF00BF00BFF1D1D4
:10B180007047000070B505460C46164602E00FCC2D
:10B190000FC5103E102EFAD2082E02D303CC03C5E1
:10B1A000083E042E07D301CC01C5361F03E02178E9
:10B1B0002970641C6D1C761EF9D270BD03210C48E9
:10B1C00002680A4302600B4802680A4302600A48A8
:10B1D00080470A480047FEE7FEE7FEE7FEE7FEE796
:10B1E000FEE7000006480749074A084B7047000081
:10B1F00024050040540500403DBA0100C1B00100E3
:10B200004032002040420020403A0020403A0020D6
:10B21000034610B50B439B070FD1042A0DD308C872
:10B2200010C9121FA342F8D018BA21BA884201D916
:10B23000012010BD0020C04310BD002A03D0D30759
:10B2400003D0521C07E0002010BD03780C78401C8E
:10B25000491C1B1B07D103780C78401C491C1B1B85
:10B2600001D1921EF1D1184610BD0000034670B501
:10B2700002460B439B070FD10E4CE60100E008C2CB
:10B2800008C91D1B9D433542F9D0D9B21170521C1B
:10B2900000290DD01B0AF8E70B78491C1370521CCB
:10B2A000002B05D00B78491C1370521C002BF3D1D6
:10B2B00070BD00000101010130B5441C03E00178BC
:10B2C000401C00290DD08107F9D10B4BDD0104C8CA
:10B2D000D11A91432940FAD0001B0A0603D0C01EA0
:10B2E00030BD001B30BD0A0401D0801E30BD0902F4
:10B2F000FCD0401E30BD000001010101F8B5042A58
:10B300002CD3830712D00B78491C0370401C521EAB
:10B3100083070BD00B78491C0370401C521E830717
:10B3200004D00B78491C0370401C521E8B079B0FE6
:10B3300005D0C91ADF002023DE1B08C90AE0FFF789
:10B3400021FFF8BD1D4608C9FD401C46B4402C43F2
:10B3500010C0121F042AF5D2F308C91A521EF0D4E5
:10B360000B78491C0370401C521EEAD40B78491C10
:10B370000370401C012AE4D409780170F8BD01E093
:10B3800004C0091F0429FBD28B0701D50280801C51
:10B39000C90700D00270704700290BD0C30702D044
:10B3A0000270401C491E022904D3830702D5028083
:10B3B000801C891EE3E70022EEE70022DFE700227F
:10B3C00003098B422CD3030A8B4211D300239C46E2
:10B3D0004EE003460B433CD4002243088B4231D35A
:10B3E00003098B421CD3030A8B4201D394463FE0EE
:10B3F000C3098B4201D3CB01C01A524183098B424E
:10B4000001D38B01C01A524143098B4201D34B0136
:10B41000C01A524103098B4201D30B01C01A524199
:10B42000C3088B4201D3CB00C01A524183088B4220
:10B4300001D38B00C01A524143088B4201D34B0009
:10B44000C01A5241411A00D201465241104670477B
:10B450005DE0CA0F00D04942031000D34042534080
:10B4600000229C4603098B422DD3030A8B4212D340
:10B47000FC22890112BA030A8B420CD38901921172
:10B480008B4208D3890192118B4204D389013AD0AF
:10B49000921100E08909C3098B4201D3CB01C01A84
:10B4A000524183098B4201D38B01C01A5241430997
:10B4B0008B4201D34B01C01A524103098B4201D385
:10B4C0000B01C01A5241C3088B4201D3CB00C01AF2
:10B4D000524183088B4201D38B00C01A5241D9D20A
:10B4E00043088B4201D34B00C01A5241411A00D28B
:10B4F0000146634652415B10104601D34042002B87
:10B5000000D54942704763465B1000D3404201B505
:10B510000020C046C04602BD704770477047754660
:10B5200000F024F8AE46050069465346C008C00046
:10B53000854618B020B5FFF755FE60BC00274908C6
:10B54000B6460026C0C5C0C5C0C5C0C5C0C5C0C5BB
:10B55000C0C5C0C5403D49008D46704710B5044682
:10B56000C046C0462046FFF7F6FD10BD00487047B4
:10B57000DC310020F0B50025FF248BB0013401261A
:10B580002F460195204603F0B9FD002808D0474812
:10B590004068304204D046480021201835430160FD
:10B5A000241D76007F1CA4B2042FEBD3FF207D3036
:10B5B00003F0A4FD002807D03E48002101604007A9
:10B5C00005433D48006901903C4C280712D00127F3
:10B5D00000262F420AD03A48B200111808690969BA
:10B5E000C004C00E8903A258890F90477F00761CC3
:10B5F000042EEED3002D57DA00200590401E4DE0BA
:10B60000A119403108788506AD0E42B2521C39D0DE
:10B610000121A940089A0091114233D0800903907A
:10B62000284601F015FC800020580490002802D123
:10B630000398032826D103980099032802D105987E
:10B64000084305901F4AA80080180068019A8003EB
:10B65000800F114202D0022802D013E0032811D13A
:10B660000399032907D102281CD00221284603F0A0
:10B6700035FD7F1CFFB20498002803D0049A2846A9
:10B6800003999047761C042EBAD3002F0CD00A4899
:10B6900000690199884207D00190059800273E462D
:10B6A0000890ADE70321E1E70BB0F0BD0063004077
:10B6B000006000407C6100400005005070260020C2
:10B6C00000650040000700508307FF22DB0E9A4010
:10B6D0008907090E994000280BDA0007000F083887
:10B6E000830808489B001818C36993430B43C36140
:10B6F0007047830804489B001B1818689043084350
:10B700001860704700ED00E000E400E010B5064965
:10B710000020086048608860C860034940390860BC
:10B72000486004F029FE10BD40110140FFB5114FE3
:10B730000446387881B01D461646002801D100F035
:10B74000D1F97869A04211D918200A4960434118FB
:10B75000002C06D00298CE640D65886400208865B0
:10B7600048650A98C865002005B0F0BD0020C043B8
:10B77000FAE7000064310020FFB5114F0446387825
:10B7800081B01D461646002801D100F0ABF938699A
:10B79000A04211D918200A4960434118002C06D054
:10B7A0000298CE610D6288610020886248620A9822
:10B7B000C862002005B0F0BD0020C043FAE70000D9
:10B7C0006431002070B5074B0646187814460D46C4
:10B7D000002801D100F086F922462946304600F0C3
:10B7E00003F870BD6431002070B50E46182148433F
:10B7F000134914464518E86A1835002804D0012872
:10B800000FD0022805D113E0284600F0A1F9A0428C
:10B8100001D2002411E022463146284600F0C3FA46
:10B820000BE0284600F094F9A042F4D20446F2E777
:10B830003146284600F087FA0446204670BD0000D5
:10B840006431002070B505460C460846FFF734FD0C
:10B85000024621462846FFF7B5FF70BD0FB408B574
:10B8600004A900916A46039900F004F801B008BCED
:10B8700004B01847F7B598B007A8029040200025FB
:10B880000495039018980C46059506902178641C41
:10B89000002977D0252907D002A800F035FA0598AD
:10B8A0000028F3DA1BB0F0BD012200210227134665
:10B8B0000826207823281BD02B2816D02D2802D02C
:10B8C000302806D101E0194300E03943641C002A06
:10B8D000EFD1002220780346303B0A2B0AD20A23FC
:10B8E0005A431218303A641CF4E704200143EDE790
:10B8F0003143EBE70023C7B22E2F0AD1641C207816
:10B900000746303F0A2F04D20A277B431B18303BDF
:10B91000F4E76C280DD068280BD0702852D00BDCCF
:10B9200025285AD058282ED063280CD0642858D106
:10B9300010E02078641CECE7732832D0752817D00B
:10B9400078284ED11FE01A981A9A0068011D1160DC
:10B95000017843E01A981A9F0068061D3E6000684F
:10B960000191009201460A2202A800F0FCF838E09A
:10B970001A981A9F0068061D3E60006800920191A7
:10B980000A2209E02FE01A981A9F0068061D3E60FF
:10B990000068009201911022014602A800F048F9C7
:10B9A0001FE01A981A9A0068011D11600668317824
:10B9B000761C002915D002A800F0A6F905980028E9
:10B9C000F5DA0EE01A981A9A00680823011D116032
:10B9D0000168102200960195DFE7252102A800F0FA
:10B9E00093F9641C5BE70598002800DC5AE704988B
:10B9F000002804D0024607A91898FFF7E3FE04992F
:10BA00000598401805904DE710B504F04BFC10BDAB
:10BA100010B508484068002808D08047002804D0A6
:10BA2000FF21054A673100F07BFB10BD02F0D8FF13
:10BA300010BD000054210020000B020010B503F0DF
:10BA40001FF8002805D01F491D484860C8131E492B
:10BA500088611E48018CC9B201290BD1828C120762
:10BA600008D1028D1206120F042A03D1828D12060C
:10BA7000120F0AD0012921D1818C09071ED1018D15
:10BA80000906090F0A2904D007E0114A0121916033
:10BA9000F5E7828D1206120F05D00D290ED1808D8B
:10BAA0000006000F0AD10B480168012904D00A4999
:10BAB000016001680129FCD1C021416110BD000075
:10BAC000DFFF07C000050040006C0040C00F00F021
:10BAD0000006004000EC06407593000010B504F02D
:10BAE000D1FC10BD10B5124C02202061606111A084
:10BAF000A0611348E0610120800220620020A06262
:10BB000060620CA1A1642146E0621039E164102159
:10BB10002165A0656065E0650AA1E01DFFF7A6FB51
:10BB200009A12046FFF7A2FB2020A07110BD000054
:10BB3000643100205465726D696E616C0000000014
:10BB4000542D00205254540053454747455200009D
:10BB50000269C1688A4203D88068401A801800E0F0
:10BB6000501A401E7047FFB583B00E4670420D9FBD
:10BB70000C9C0090002900DB0846012502E0FFF73D
:10BB800028FC6D1C05998842F9DA0698A84200D96C
:10BB90000546002C04D0002E01DB780700D5641E7A
:10BBA000B80702D50698002810D0F8070ED1002C4F
:10BBB0000CD0A5420AD22021641E039800F0A4F8FC
:10BBC0000398C0680028F2DA07B0F0BD0398C06897
:10BBD0000028F9DB002E02DA2D21009E02E0780712
:10BBE00007D52B21039800F08FF80398C068002830
:10BBF000EADBB807800F022810D1069800280DD183
:10BC0000002C0BD0A54209D23021641E039800F00D
:10BC10007BF80398C0680028F2DAD5E70197009412
:10BC20003146069B059A039800F002F8CCE7000025
:10BC3000FFB581B001261F4634460A9D029802E0F6
:10BC4000FFF7BDFB641C03998842F9D2A74200D9D3
:10BC50003C460B98C00718D1002D16D00B988007D2
:10BC600001D5002F02D0202000900CE03020FBE70F
:10BC70006D1E0099019800F047F80198C0680028EF
:10BC80003DDB002D01D0AC42F2D30198C068002802
:10BC900035DB012F01D97F1E06E031460298FFF700
:10BCA0008EFB0399884202D303984643F1E7154F70
:10BCB00031460298FFF783FB0146029A7143511AFD
:10BCC0000291395C019800F01FF80198C0680028C3
:10BCD00005DB30460399FFF772FB0600E8D10B98AD
:10BCE000C0070CD0002D0AD0AC4208D220216D1E16
:10BCF000019800F009F80198C0680028F2DA05B050
:10BD0000F0BD0000A40A020010B504468068636814
:10BD1000421C934205D323681954A260E068401C7A
:10BD2000E060A2686068824209D121682069FFF75B
:10BD300049FDA168884203D00020C043E06010BDE7
:10BD40000020A06010BDF7B5064682B0002000902C
:10BD5000F46817463069A04201D9051B02E0B168BA
:10BD6000201A0D1AB0686D1E001BA84200D80546A7
:10BD7000BD4200D33D4670682A4600190399FFF77B
:10BD8000BDFA00987F1B4019009003986419401970
:10BD90000390B068A04200D10024F460002FD9D1F4
:10BDA000009805B0F0BDF7B5C66817460446806830
:10BDB000851B6068BD4206D980190199FFF79EFA7C
:10BDC000F019E060FEBD2A4680190199FFF796FA46
:10BDD00001987E1B411932466068FFF78FFAE660D2
:10BDE000FEBD30B47446641E2578641CAB4200D29C
:10BDF0001D46635D5B00E31830BC1847FEE7F7B5EE
:10BE000084B00025168807461580406B144600282C
:10BE100013D003780598032E51D302210170218895
:10BE20001122491C89B2218042542188491C89B2BF
:10BE3000218043542088401C2080386B00281DD06E
:10BE400005462088059902461232B24237D811229F
:10BE50000A5420881022401C80B220800A54208876
:10BE6000401C20800F202A5C2388401ECA54228850
:10BE700040B2521C22800028F5DA002538462030D6
:10BE80000290807B002806D033462246059902F0B6
:10BE900049FE050014D10298407B002806D03246A6
:10BEA0002146059800F028FD050009D1B878002842
:10BEB00023D0059886462088001DB04202D90C2068
:10BEC00007B0F0BD684679DF0028F9D1218803204A
:10BED0007246505420881921401C80B22080115491
:10BEE00020887146401C80B2208041186846008836
:10BEF00004F05CFB218840182080F878002817D0D7
:10BF0000218803230A46FB56C91C0598B142D6D89E
:10BF10000221815421880122491C89B22180425486
:10BF20002188491C89B2218043542088401C2080EC
:10BF30007868002817D021880023C3560A46C91CF8
:10BF40000598B142BBD80221815421880A22491C9C
:10BF500089B2218042542188491C89B221804354EE
:10BF60002088401C2080388900280AD00094384658
:10BF70000196062202210830059B04F096FB05007D
:10BF80009ED1388A00280AD00094384601960722AC
:10BF900003211030059B04F088FB050090D1388BFD
:10BFA00000280AD000943846019615221421183032
:10BFB000059B04F07AFB050082D1386A002806D080
:10BFC00033462246059901F027F90500D8D1786A51
:10BFD000002806D033462246059902F0B9FF050035
:10BFE000CED10298007B002807D03346224638463F
:10BFF000059903F0F6FE0500C2D13878002807D075
:10C00000334622463846059903F012F80500B7D1A9
:10C01000284655E710B501220221002000F0ECFD72
:10C02000002801D0072812D107220221012000F0A8
:10C03000E3FD002801D0072809D100210A22084683
:10C0400000F0DAFD002801D0072800D1002010BD43
:10C0500010B520A207CAACB029AB07C3592120A84C
:10C06000018329A82890092120A88183382101A8CB
:10C07000FFF7A3F9012468460471032141710621E9
:10C08000C17126A80A906846847124211DA8FFF773
:10C0900094F920A80470FF202D302190B420229024
:10C0A00038210FA8FFF789F910A884810C48149053
:10C0B000002000900B4B1DAA0FA901A800F098F9D1
:10C0C000002804D0FF21084ADB3100F029F82CB009
:10C0D00010BD0000444353486F73742100000000FA
:10C0E000842000202DF10100A4C901000448426809
:10C0F0000121C9050B46934383600A40C260704723
:10C100000005005070B5064614460D460C2000F0A0
:10C1100075FD22462946304600F010F870BD00003B
:10C120000EB56B461980019202906A4600210248C2
:10C13000FFF7E8FF0EBD00000140000018B5012424
:10C140006B461C701B78144B186059609A60134939
:10C15000401807D001280FD1DA60D86800889861AC
:10C16000D86807E01A611869806858611869008802
:10C17000986118694068D861186858689868D868E4
:10C18000186958699869D86972B6684600780028B5
:10C19000FBD162B618BD0000B8270020FFBFFFFF2B
:10C1A000014B1B68184700004C26002038B50C4690
:10C1B000A2680C235A43064B09789D58054A126A17
:10C1C00000920246204608302369A84738BD000087
:10C1D000A0270020F020002010B5064914230A787B
:10C1E0005A435118091DFFF7E1FF042003F062FED6
:10C1F00010BD0000D42600200A4B9B68002B07D0FE
:10C20000002A07D0002805D00068037C002B03D04B
:10C21000082070470720704700230374417442616F
:10C220001846704714210020FFB59007002581B003
:10C2300014460E46002832D11B4F002C31D003F09B
:10C24000D7FC0498786103203870334618212246C1
:10C2500000204B43BC601834C10089180D704D702C
:10C260008E704C601C19401C0328F5DBFD607D704E
:10C2700001240E48BD702405046003211420FFF73B
:10C2800023FA0B4804600B4C0198A0600321112095
:10C29000FFF71AFA60683861002005B0F0BD07208A
:10C2A000FBE7BD60FBE700001421002080E200E016
:10C2B00000E100E000150140FEB50D461B491746A0
:10C2C0008968044600292AD0002C28D0052D01D2E7
:10C2D0000720FEBD6069002821D0607C012820D0A5
:10C2E000002604F0A5F9C0001049019089684018A3
:10C2F000694604F0C7F9002815D0012101700C49E6
:10C30000446049680830E2C00849019889684118CA
:10C3100068460078487004F007F80020FEBD082049
:10C32000FEBD2E46DDE70420FEBD000014210020E6
:10C3300000150140F8B5134D0446A96800291CD02A
:10C34000002C1AD06069002817D00026267404F04B
:10C350006FF9C700A8686946381804F093F90028F7
:10C360000DD0022101704460A86839186846007831
:10C37000487003F0D9FF3046F8BD0820F8BD04200E
:10C38000F8BD000014210020F0B50C4693B01F2129
:10C390006A461180072600279180002809D0C178BD
:10C3A00049070DD502A9FFF72AFD002809D102ADE2
:10C3B00001E000251780002C0ED0E078002802D084
:10C3C000304613B0F0BD01AA0AA92046FFF717FDB9
:10C3D0000028F6D10AAA02E0684600228780684653
:10C3E0008088C3B268460088C1B2284672DFE8E799
:10C3F00070B50D4604991646040042D0002E40D078
:10C40000424800224271C360016124223146404803
:10C41000FEF7B8FE00F0D4F83D4934310846103834
:10C4200001602031816038215C38FEF7C6FF384852
:10C43000217838380170A1788170E178C170617815
:10C4400041706269216942610161E268A168C2606C
:10C4500081600146E369A269CB618A61616A002952
:10C4600019D00146AC310246B83241628A60636A33
:10C470001B880B80616A436A898899800021436A1E
:10C4800006E00E2070BD666AB668765C5654491C9C
:10C490009E888E42F7D8A16A00291CD01C4AAC3273
:10C4A00011460C398A608162A36A9B888B80A16ADD
:10C4B000836A098819800021836A04E0A66AB66845
:10C4C000765C5654491C9E888E42F7D82C210A5D12
:10C4D0000F4918390A73216A002909D00B49143110
:10C4E0000162226A52884A80216A026A09881180A0
:10C4F0006168002904D00549891D41606168416077
:10C50000034829463838FFF73FFF70BDA4200020BC
:10C510001824002010B502881C4C102A17D00021C6
:10C52000112A1AD01B2A11D1007A00280ED1607965
:10C5300001281ED0022822D0032822D0042805D1A9
:10C540002171E2680846002A00D0904710BD817D25
:10C550000129FBD18088208110BD617080882189EC
:10C560008842F9D1012005E021690029F4D08847EB
:10C5700010BD022000F058F80028F5D110BD0320AE
:10C58000F8E7032020710420F4E70000A420002035
:10C5900010B5022801D003280ED1084C20780028BD
:10C5A0000AD000202070607900F03EF8002803D007
:10C5B0002169002900D0884710BD0000A420002078
:10C5C00010B507210148FEF7F8FE10BDBC20002081
:10C5D00010B51348007801281FD1124C607800284C
:10C5E0001BD16079002802D074DF002816D1012009
:10C5F0000B49607006203839C87009480021383866
:10C60000FFF7C2FE002809D1607900F00DF800287C
:10C6100003D02169002900D08847002010BD000008
:10C6200018240020A4200020F0B5784C87B0607159
:10C63000002606A8069602F0C9FE0127082802D0A7
:10C64000002808D104E006A801F07CFE002804D1EF
:10C650000698002801D02770D4E0FFF7B1FF6C4D99
:10C660006878002802D06079012807D0A8780028CF
:10C670000CD06079012801D0022824D1E16800297A
:10C6800003D0E7700820884700E0E6706079012851
:10C6900008D16878002809D05C48193002F06AFE99
:10C6A000002803D06079022802D00CE002206071DB
:10C6B000A878002805D05548193002F05BFE002804
:10C6C00001D103206071287B002804D16079032800
:10C6D00001D104206071287E002804D160790428EB
:10C6E00001D166712671E16800290AD060790328BA
:10C6F00001D0042805D12878002802D060780028CD
:10C7000017D0A67018216846FEF757FE68460670D7
:10C71000019606720396607901280ED0022815D082
:10C720003B4E243637465C3F03281BD004285DD19E
:10C730003AE0A77007208847E4E7344818300190B2
:10C740006846077046820682277152E02F481830EB
:10C7500001906846077029894182A98801820220D8
:10C76000207146E0A88A69464882288A08822848BB
:10C77000243004F009F8002805D02878002802D0D9
:10C780006078002801D003202FE00220694608725B
:10C7900004200396F8701E4800213838FFF7F4FD96
:10C7A000002830D1052020E0A88B69460882288C1B
:10C7B00048821748243003F0E7FF002805D0287886
:10C7C000002802D06078002801D004200DE002206B
:10C7D0006946087204200396F8700D480021383825
:10C7E000FFF7D2FD00280ED10620207160790028C5
:10C7F00003D0684673DF002805D1E168002901D025
:10C8000020798847002007B0F0BD0000A420002058
:10C810001824002070B5054601461C220E48FEF77C
:10C82000B1FC0E4C002626702968002906D008228B
:10C83000201DFEF763FD201D7ADF02E00748001D82
:10C840007BDF002807D1401E60806670044A00210B
:10C850000448FFF7D1FC70BD04250020C42000204F
:10C86000CD050200300A0200F8B5214C02880027ED
:10C870001E4DE689102A15D01E49112A21D0122AF0
:10C880002DD0502A1CD1C288801DB24218D14289B5
:10C89000022A15D1427B037B10021843C007C00F48
:10C8A0000CD112E0818869800146104808221831B5
:10C8B0000C30FEF723FD6F70002E01D100F0FEFC5E
:10C8C000F8BD0020C04368806F700868FFF732FD34
:10C8D0000028F5D0A1690029F2D08847F8BD0822C8
:10C8E000811802480C30FEF709FDE7E7C42000205C
:10C8F00004250020300A02007CB5054608880C4655
:10C900000930904201D90C207CBD684671DF0028B7
:10C91000FAD121880820685420881B21401C80B24D
:10C9200020802954208800A9401C80B22080401912
:10C9300006220131FEF7E2FC20886946801D80B2A4
:10C9400020800978002900D0012129542088401C2A
:10C95000208000207CBD000070B5044600F0E6FE9B
:10C960002046FFF781FF204600F0D0F820880C4DCC
:10C97000102802D011280FD10BE0072000F03EF95B
:10C98000002804D0FF2107A20A31FFF7C9FBA088C5
:10C9900001E00020C04368802046FFF7BBFD70BD6A
:10C9A000802000202E2E5C2E2E5C2E2E5C6D616968
:10C9B0006E2E630000B5254887B0006805900023FF
:10C9C0004822234905A803F03BFB002804D0FF219F
:10C9D00020A24431FFF7A4FB6A460121002003F0A6
:10C9E00017FB002804D0FF211AA24A31FFF798FB59
:10C9F0001C4803F049F9002804D0FF2115A24D314D
:10CA0000FFF78EFB012069460873684603F080FA41
:10CA1000002804D0FF210FA25231FFF781FB1248FA
:10CA200003F06CFA002804D0FF210AA25631FFF768
:10CA300077FB0E4803F026FB002804D0FF2105A257
:10CA40005A31FFF76DFB07B000BD0000F40902008A
:10CA50004C2300202E2E5C2E2E5C2E2E5C6D6169E8
:10CA60006E2E6300E81F002059C901007902020000
:10CA70001CB5044681786A460C4802F0BBFC0028CD
:10CA800012D160781C21484309491C2340181A46DA
:10CA9000694602F075FD064806494C30807A8000F0
:10CAA0000A582146684690471CBD0000E820002037
:10CAB00000260020480A02007CB5134E00250C46D3
:10CAC0003060002918D06946002000F065F8002881
:10CAD00019D101A9012000F05FF8002813D16846A0
:10CAE00001790020002901D0022004E0694609787C
:10CAF000002900D00B2020707068002802D1FFF7B9
:10CB000089FA054628467CBD9C20002010B51C4CA7
:10CB10000188606810290DD011290AD1401E60607B
:10CB200007D1FFF777FA002803D02168002900D049
:10CB3000884710BD00281ED100210122084600F0C0
:10CB40005BF8002801D0072811D10722022101201B
:10CB500000F052F8002801D0072808D10422022151
:10CB6000002000F049F8002805D0072803D02168EC
:10CB7000002900D088476068401C606010BD00003C
:10CB80009C20002010B5032000F060F9002801D09F
:10CB9000062800D1002010BD00200870704700005A
:10CBA00010B5042806D0072810D00A2801D103F0B8
:10CBB0005FF910BD0B481321408876DF0828F8D0B4
:10CBC0000028F6D0FF2108A26F3108E0FFF700FD32
:10CBD0000828EED00028ECD0FF2103A27731FFF720
:10CBE0009FFA10BD802000202E2E5C2E2E5C2E2E53
:10CBF0005C6D61696E2E63000720704710B5054AB1
:10CC00000146127A0020D20702D0084600F02AF826
:10CC100010BD00008C20002010B50D4A51609060BE
:10CC2000C00706D007210B48490581600022C26079
:10CC30008161094A00210948FFF7DEFA002805D181
:10CC40000648074A0121001DFFF7D6FA10BD000073
:10CC50008C2000200005005079EB0100280A02001A
:10CC6000EDC00100FEB5764D0322EB6892059A43B4
:10CC700002936B6800939C0006461B19002001215B
:10CC80000193490507466F4C3300FFF7AAF8180DCA
:10CC90001515374755677C7F887F88D6959595957C
:10CCA00095BFC5C8CFD6D6140721029A490591432E
:10CCB000A160E7602F70FEBDA260E7606068072298
:10CCC00052055040800209D5A160E760022E02D1D2
:10CCD000E120C0000AE07D20400107E0E160A7609C
:10CCE000022E01D1C82001E0FF2091302E70642176
:10CCF000FEF765FB0099414300223FE0A260E76038
:10CD00006068072252055040800204D5A160E760A8
:10CD100019204001EAE7E160A760E3E7A260E7606D
:10CD20006068072252055040800202D5A160E7608A
:10CD3000D1E7E160A760D7E7A260E76060680722FB
:10CD400052055040800202D5A160E76001E0E16039
:10CD5000A7602E700098410000220FE0A260E760FB
:10CD60006068072252055040800202D5A160E7604A
:10CD700001E0E160A7602E7000990022324800684F
:10CD8000FFF79AFAFEBDA260E76012E06068012139
:10CD900089050A468243A2600840E060ECE76068CB
:10CDA000012189050A468243A2600840E06001999A
:10CDB000D2E7E160A7602DE023484068FFF7BAFAA8
:10CDC00011218A1B01D0002807D00722E9685205EB
:10CDD0001140A160E760EF60FEBD0121C905E96077
:10CDE000012A0CD91046C82148436421FEF7E7FA0E
:10CDF00069680022414314484068FFF75DFA072242
:10CE0000E96852051140E160A760FEBD07214905B0
:10CE1000A160E7602E70FEBD03229205B3E70521F5
:10CE20004905A160E76001218905C2E70121C90523
:10CE3000A160E76003214905BBE707214905B8E781
:10CE40008C20002000050050280A020006207047B0
:10CE5000024909182020085670470000702600205B
:10CE6000002807D00449814204D80449814201D9ED
:10CE70000120704700207047742100208421002089
:10CE8000044A0168914201D0083101E00149383972
:10CE900001607047142D002030B50446274895B036
:10CEA0000FC80EAD0FC52648694688860EA80DAD81
:10CEB000811E63DF002803D022A22921FFF730F969
:10CEC0001C2106A8FEF779FA6846017E0A20014374
:10CED00068460176002005906846817DF920014072
:10CEE0000120891C0143684681750120014668467E
:10CEF0001031017501200146684610314175142139
:10CF0000FEF75BFA05A801900B21009568460181A8
:10CF10001021818111A207CA12AB07C312A8049085
:10CF20006088231D6A4606A9A2DF002803D005A257
:10CF30005121FFF7F5F8002015B030BDF8090200C7
:10CF4000341200002E2E5C2E2E5C2E2E5C64637339
:10CF50005F736572766963652E630000667764733C
:10CF60002C736D752C736D00F8B53E481422017852
:10CF700051430C18E0680C2148433A492769CC31E9
:10CF80004018058941890091241D466802F0C4FAC1
:10CF900001463846FEF713FA002932D000200099E6
:10CFA000A2884D436188AE198918CD1900222E49F7
:10CFB00000280A6109D002F0AFFA6188884222D0C5
:10CFC000B54202D1A08800281DD0A06803281AD03D
:10CFD00002F0A2FAA188CA1901461046FEF7EFF93D
:10CFE000214C8808E06002F097FA01462846FEF7D7
:10CFF000E6F9002911D00020B5422FD000280ED02C
:10D000002CE00120CBE702F087FA01463846FEF714
:10D01000D6F915494861032021E00120ECE7ADB2C3
:10D02000B7B202F079FA01463846FEF7C8F906466B
:10D0300002F072FA01462846FEF7C1F9864201D194
:10D04000781B09E002F068FA064602F065FA01462C
:10D050002846FEF7B4F9701A80082061022002F019
:10D0600029FFF8BDD4260020F020002010B5074885
:10D0700014220178514308180079042802D000F0E6
:10D0800059F810BD012002F015FF10BDD426002074
:10D0900010B50B481422017851430818094AC18879
:10D0A00011620079012806D0032801D0042801D19B
:10D0B000FFF75AFF10BD012002F0FCFE10BD00007A
:10D0C000D4260020F020002014225043054A0021DD
:10D0D00080180171C18002220161C2604161018139
:10D0E00070470000D4260020F8B5104C069E6578E5
:10D0F0000A2D19D027787D190A2D00D30A3D14274F
:10D100007D432D1928716A6103C92961E860EB80AC
:10D110002E816078401C607005480078002801D19D
:10D12000FFF7B6FF0020F8BD0420F8BDD42600208C
:10D13000F020002010B50D4C14212078484301192F
:10D140000020091DFFF732F82078FFF7BDFF607857
:10D15000401E60702078401CC0B220700A2801D1A7
:10D1600000202070002002F0A5FE10BDD426002073
:10D17000F8B52348C16800293ED00E6821494C68A3
:10D180000769C078E11B0D022D0AED1C002814D19F
:10D1900001201D4A000450601B4A403A50601B4960
:10D1A000400008601A4908601A49012008602F20D1
:10D1B000FDF7D8FF12490120C870B54200D23546AC
:10D1C000E81900020F4B000A403318600D4A5168FD
:10D1D000001B091B0902090A0002000AC91C81423E
:10D1E00009D9506818602F20FDF7BCFF01200749BE
:10D1F000400480390860F8BD02F0FAFCF8BD000078
:10D2000014210020001501404013014080E200E09D
:10D2100000E100E000100140F8B506461088144611
:10D220008446801D0D46984201D90C20F8BD3288F5
:10D230000720062AFAD31927FF01184BBA4201D951
:10D240009A42F3D171880629F0D3B94201D99942A3
:10D25000ECD19A4203D0994201D08A42E6D8052106
:10D260006046295420881221401C80B22080295415
:10D270002088401C80B220804119308803F096F944
:10D280002188401880B220804119708803F08EF9FF
:10D290002188401820800020F8BD0000FFFF00001A
:10D2A00010B502A2AE21FEF73BFF10BD2E2E5C2E64
:10D2B0002E5C2E2E5C6D61696E2E6300F8B51648EB
:10D2C00001F0D0FB144D00260C3D144C002807D073
:10D2D000616900291CD001206A461070684616E07A
:10D2E0002878002805D06169002911D068460670A9
:10D2F0000DE0687800280DD0A16809480022006878
:10D30000FEF7DAFF002803D0A169002900D0884782
:10D310002E70F8BD6168F0E7D020002004250020C1
:10D32000300A020070B5094B04469E7A0820002599
:10D330000E4207D00648844202D01889A04202D18A
:10D340000020156070BD052070BD00004026002043
:10D35000FFFF00000C214843064910B50122401888
:10D360008272911E0181FF21C1720721FEF723F80D
:10D3700010BD00004026002010B5134C2079000796
:10D380001FD46069401C6061E068002801D004205F
:10D3900004E001F099FB002803D0022002F062FFB4
:10D3A00010BD2069002809D06068C10701D00320A2
:10D3B000F4E70121084360600020EFE7FFF756FE25
:10D3C00010BD02F043FF10BDF020002010B508484A
:10D3D00041680A0708D48A0702D501221143416037
:10D3E000022002F03FFF10BD02F030FF10BD000030
:10D3F000F020002010B5144B04460FCB86B00393E9
:10D400006B4607C31148694608821231684663DFDC
:10D41000002803D00EA29E21FEF782FE0020C0430A
:10D420002080A21C04A90120A0DF002803D008A2AC
:10D43000A821FEF775FE2046FFF72EFD204601F0DD
:10D440000DFA06B010BD0000180A0200C0D100009D
:10D450002E2E5C2E2E5C2E2E5C6463735F736572C1
:10D46000766963652E630000F0B585B00C46002830
:10D4700002D0012005B0F0BD207900270126002848
:10D4800006D01F4D012820D002282CD00F20F1E714
:10D4900002970397E0680190694601A802F0F2FA4A
:10D4A00000280ED002988188E180008820810298AF
:10D4B00002F062FB694609880A01124951188E730D
:10D4C00000E00A2002212171D4E70F4B6A460021B7
:10D4D000A01D02F095FA002807D00B4908398F608B
:10D4E000CF600A28C6D12846C4E7019802F044FB61
:10D4F000054989880A01034951188E73F1E7000034
:10D500001D1D0000242D002044210020FEB50E46E4
:10D51000044681786A46234801F06CFF002826D132
:10D5200060780C21204F4843C019807A40061FD4F0
:10D53000022E1DD0012E1DD01C4DA0781C21484369
:10D540001B49002341181C226846A847002813D015
:10D55000022E0CD020780C21484313490C3140187E
:10D56000807A144980000A58214668469047FEBDDB
:10D57000114DE2E7114DE0E7022EF8D060780C2162
:10D580004843C019817ABF221140817260781C2102
:10D5900048430549403941181C231A466846A847A4
:10D5A000D8E70000E820002040260020D10102003A
:10D5B0003C250020380A0200C9F70100E9F6010005
:10D5C00070B50546114A124800241C2363431B18FA
:10D5D0009B7EFF2B04D0641C072CF6D3104670BD35
:10D5E0000A78022A09D01C2262431018FD22827692
:10D5F00007221030FDF782FE04E01C216143081869
:10D60000FE2181762C700022E8E7000043800000B4
:10D610003C250020F7B505250F4F06460024002EB7
:10D620000AD01C206043C019072231461030FDF794
:10D63000EFFD002807D00AE01C206043C019018BD1
:10D640000298814203D101980025046002E0641C25
:10D65000072CE4D32846FEBD3C2500207CB50546BA
:10D6600081B26A46074801F0C5FE040008D1742162
:10D67000684601F0EBFE040002D1284601F086FE68
:10D6800020467CBDE820002010B5100004D0FF210A
:10D6900002A28931FEF744FD002010BD2E2E5C2E23
:10D6A0002E5C2E2E5C6D61696E2E63001FB569467F
:10D6B000087301F037FF002804D0FF21184AA33176
:10D6C000FEF72EFD03A800F02DFA002804D0FF215C
:10D6D000134AA631FEF724FD01A805210130FDF70C
:10D6E0006AFE68464079012108438D22104030309F
:10D6F0004206520E68464271072282711022C271A0
:10D7000008480090684601716946074800F036FBFA
:10D71000002804D0FF21024AB431FEF701FD1FBDED
:10D72000A4C9010089D6010080200020F0B591B085
:10D730000546FF24002007940290EC48007800285A
:10D740004BD0EB4F3868002847D001A800F0DCF937
:10D75000002803D0E74AE849FEF7E2FC281D0590BF
:10D760002C2069460883FF20002688710E710396DD
:10D77000DF4C28880C3C10280ED0A88803AA022170
:10D78000FFF7D0FD002807D103980C214143091968
:10D79000CA7A69468A7148712888132219287DD06F
:10D7A0000FDC10281BD0112855D0132877D014284F
:10D7B00013D103980C2148430019C07AFF2874D074
:10D7C00090E0CE491A286CD01E286BD0522804D184
:10D7D000B87A8000095801A8884711B0F0BD03AAA3
:10D7E0000121C748FFF79EFD0028F6D103990C20C0
:10D7F000484302220019827211276B461F74597127
:10D80000A988018129468272083107220F46FDF757
:10D8100075FDE87DC10707D04108B4480830405C79
:10D82000FF2808D0079006E0B54A07A93846FFF759
:10D83000F1FE00280ED103980C22504300190799DD
:10D84000C172827A08231A4382726846817101A8E4
:10D85000FFF70EF936E103980C2148430119887A45
:10D86000FD2210408872010706D5C0090DD00021A5
:10D8700001A8FFF74BFE08E068468079FF2804D036
:10D8800001F084FDFF206946887103980C22504303
:10D890001021001981721220694604E07AE032E01A
:10D8A00003E0D3E00CE108740CE12A8A07A9002008
:10D8B000FFF7B0FE00280ED103980C225043001948
:10D8C0000799C172827A08231A438272684681716D
:10D8D00001A8FFF7CDF803980C2148430019C07A3E
:10D8E000FF2806D003981C21484381494C39401831
:10D8F000029003981C21484382494218A8880023BB
:10D90000029986DF69E76846027403980C21484350
:10D910000119887A042210438872CA7AFF2A0BD030
:10D920004022104388721620694608740023A88894
:10D930001A4685217FDF21E007A8FFF741FE002876
:10D940001FD0064600200D9003990C224A4312195D
:10D95000D27A1C235A436B4B0F90D2180E921C2282
:10D9600051431A46C4328918109009910A900B90BD
:10D970000C903A1DA88809AB00217FDF0028C1D197
:10D98000A0E069460798887103990C225143091950
:10D99000C872D7E7787A0C21400840007872039863
:10D9A0006F4602464843011984468B7AFB200340A8
:10D9B0008B7214203874287A002806D0580603D4B5
:10D9C000C87AFFF74BFE2E7A7CE0687A400779D55B
:10D9D000B879FF2876D008273B438B726B7B9B0777
:10D9E00008D51C2503466B43464D5B199D7E6D088B
:10D9F0006D009D76CB7AFF2B64D06346E35C022BEF
:10DA000010D01C2250433F4D072240191030FDF723
:10DA100075FC684680791C2148434019817EFD22AF
:10DA200011400DE01C214A4331494C3951184A8AB2
:10DA30001C214843334940180283817E490849002C
:10DA40008176012101A8FFF761FD3BE0287A0209F8
:10DA5000012A23D10007000F01281FD103980C22AF
:10DA600042431219927A120718D5242148432049BB
:10DA7000303940181A210830FDF79FFC16206946FE
:10DA8000087403980C2148430119887A60221043D6
:10DA90008872787A0221084378720FE003980C228A
:10DAA00050430019827A80231A43827215206A46F5
:10DAB0001074B87A8000095801A88847002601E050
:10DAC00068460274324604A901A8FEF769FB68465D
:10DAD000007C122800D080E603980C2141430919EC
:10DAE000897A0129F7D0FFF735FC76E6D8200020A7
:10DAF0004C260020B40A0200F1090000580A020076
:10DB0000FFFF00003C250020002806D0FF21017007
:10DB100041708170C170002070470148704700005B
:10DB20000E800000F0B585B0040036D029480025ED
:10DB30000560457285722846FFF70CFC25482421B4
:10DB40003038FDF73AFC0026FF27304601F01EFC76
:10DB500021488755761C072EF7D3742168468180AB
:10DB60000721C1801D481C4900900831684601F01A
:10DB70005DFD00280FD1184E0120083E307020783E
:10DB800000280CD069468888C988484381B230464D
:10DB9000103001F05BFC05B0F0BD1148FBE7114F00
:10DBA00000240D48A1B202AA083001F023FC00288D
:10DBB00009D11C206043C01900231C2202A901F0D6
:10DBC000DFFC002801D03570E5E7641C072CE8D3A2
:10DBD000E1E700004C260020E0200020E9DB010006
:10DBE0000E8000003C250020FFB55D4891B0006824
:10DBF0001A9F1E46002875D0742F73D86846FFF709
:10DC000083FF002803D0574A5749FEF789FA0024BA
:10DC1000684604700471254605970696A9B20FAAB6
:10DC2000524801F0E7FB002806D108220FA91198FD
:10DC3000FDF7EEFA002817D06D1C072DEED36846CD
:10DC40008578FF2D4ED01298032810D048481C210B
:10DC5000301AFDF7B4FB012707281ED204A8029052
:10DC6000139800280BD011E068468570E7E7742F01
:10DC700003D04020694608716BE02020FAE738465F
:10DC80003A49A84010394968084260D0284602F055
:10DC900093FC20206946087149E031481C214C382A
:10DCA000301AFDF78CFB00281DD02D482421303878
:10DCB000301AFDF784FB01002E482BD040216A4624
:10DCC00011712D498E4244D0294AA9001C3A51585D
:10DCD000B1423CD104A90291C07A854227D168465D
:10DCE000447024E033E004A80290202069460871C3
:10DCF0004C701B490B940C310C91583907916946B3
:10DD000089781C2251431A4A05908918089107A95D
:10DD100006910CE0302269460A714C70CF70807A0F
:10DD2000800704D4134824212438FDF746FB1298B9
:10DD300069460228087910D0022108436946087113
:10DD400004A8029001A96846139AFEF729FA15B0B3
:10DD5000F0BD694608790321EFE73843EFE700009B
:10DD60004C260020B40A0200A1050000E820002093
:10DD70003C25002040260020340A020070B50646EB
:10DD800018480D46007800280ED01749002E0ED0F6
:10DD9000002D0CD02868002809D0144C21680029D7
:10DDA00007D011480A3870BD0F48801F70BD084663
:10DDB00070BD20600522691D201DFDF79FFA28799E
:10DDC000A072207A0221400840000843FB22104044
:10DDD0002072E0790123184308431040E0710020CD
:10DDE000307070BDD82000200E8000004C2600202E
:10DDF00010B50E4900234A788C78A24212D0521CEA
:10DE0000D2B24A70022A00D14B704A78074B920076
:10DE100018339A580260086910180002000A086155
:10DE2000012010BD0360002010BD0000142100205F
:10DE300010B5047800222300FDF7D3FF070605077D
:10DE40000D1D262C06000A7010BD01220A700289E1
:10DE50008A81828814E002220A7002898A8182887B
:10DE6000CA81C2688A60007C062802D0002008743B
:10DE700010BD0120FBE703220A70C2888A81028953
:10DE8000CA81C068886010BD04230B70C088888177
:10DE9000CA8110BD0520087010BD000070B5064D88
:10DEA00006460024A0002958002901D030468847A2
:10DEB000641C032CF6D370BD582C002010B5044808
:10DEC00000F040F9002801D100F0A6F810BD0000D4
:10DED000B9EF010010B588B06B46039019820E4966
:10DEE00019805A8003A90191012119811346024624
:10DEF0000AA10020FDF7B2FC694605A800F01CF954
:10DF0000040006D00EA10020FDF79CFC204608B0BE
:10DF100010BD0020FBE700001111000041626F7589
:10DF20007420746F20777269746520257320746F74
:10DF3000207265636F7264203078253478000000A9
:10DF40005772697465206661696C65640D0A00002A
:10DF5000F0B5064687B0002005901B4D069029E0DD
:10DF600003A9684600F0C6F8040007D0024617A1CE
:10DF70000020FDF773FC204607B0F0BD1EA1002075
:10DF8000009AFDF76BFC0024049F06E03A5D20A197
:10DF90000020FDF763FC641CE4B203984088A042B3
:10DFA000F4D81AA10020FDF74DFC684600F07AF87D
:10DFB0000028E1D105AB6A463146284600F092F8C8
:10DFC0000028CDD00020D7E7111100004552524F54
:10DFD000523A204661696C656420746F206F7065E9
:10DFE0006E207265636F72642E2045727220636FBB
:10DFF00064652025640D0A00466F756E64205265C5
:10E00000636F7264204944203D2025640D0A00009E
:10E0100030782538780D0A0000B58DB01421684697
:10E02000FDF7CBF91E480078810703D56846FFF756
:10E0300035FF32E0C00730D1012000F09DF800F03C
:10E040003FF901F035F900280ED006280FD0012144
:10E050006A4611750300FDF7C4FE0C191119111958
:10E0600018191819131613190B200DB000BD022032
:10E0700000F082F8012000F077F8D7E7002000E0F8
:10E080000320107602E00220FBE711760022114601
:10E0900005A801F07FF801F09DFC0020E5E70000F5
:10E0A0003C21002038B5040014D0694601F0EAFC98
:10E0B000002813D06846008801010948091888899A
:10E0C000002809D0A27A002A06D0401E88810020AC
:10E0D000A07238BD052038BD062038BD0A2038BDE5
:10E0E000242D00201FB501A9684601F089FC04B069
:10E0F00010BD000038B50D46040017D0002D15D016
:10E10000694601F0BFFC002812D0684600886168AB
:10E110000201084812189089401C908129606068AB
:10E120000C3068600120A072002038BD052038BD89
:10E130000A2038BD242D002010B50223002202F051
:10E140002BFB10BD10B5064A5178032906D08B0071
:10E15000044C491CE0505170002010BD0C2010BD33
:10E160003C210020582C002002490A7882430A7082
:10E17000704700003C21002002490A7802430A70DF
:10E18000704700003C21002010B5002803D0112862
:10E1900002D0FEF721F810BD024808224168114361
:10E1A000416010BDF020002010B51C4C21782046A5
:10E1B0004068012906D0022929D0032912D100077D
:10E1C00017D513E0000711D41548142201785143E4
:10E1D0000818C188A28B891A0904090CC18002D0D1
:10E1E00001F0F8FF10BDFEF7A5FF10BD00F0A4FE82
:10E1F00010BD6069401C606100F066FC002803D01F
:10E20000207801F057FE10BDFEF730FF10BD60789A
:10E21000044980000858804710BD0000F02000200D
:10E22000D42600207C0A020010B528DFFFF7ACFFDF
:10E2300010BD10B529DFFFF7A7FF10BDF8B50646E2
:10E240001B48154600780C46C0070AD03046FEF73A
:10E2500007FE002807D0002C07D0A00507D0062015
:10E26000F8BD0120F8BD0220F8BD0320F8BD3068DC
:10E27000A04204D8A80271680019884201D905207B
:10E28000F8BD002D10D0684601F0E8FA00280DD046
:10E290000098022106600171A101090C01818581AC
:10E2A00001F08AFB0020F8BD0420F8BD0720F8BD6E
:10E2B0003421002010B5084601F022FB10BD0000FB
:10E2C000F0B51C491C48081A05091C484169481C3E
:10E2D00003D101200007406981021948002200781B
:10E2E000541E8646C00701D00020F0BD002319E06F
:10E2F000002084460AE0104E0701BE19A04204D057
:10E30000767B664501D3B4460246401CA842F2D350
:10E310000948140120184160047BA402091B14461B
:10E320005B1C0160AB42E3D30548714601221143F7
:10E330000170D9E784210020742100200010001012
:10E3400034210020002804D00349496D01600020D9
:10E350007047032070470000D8270020F8B5074613
:10E360001D481E46007815460C46C0070ED038469C
:10E37000FEF776FD00280BD0002D0BD0002C09D025
:10E3800028462043800707D00620F8BD0120F8BDAD
:10E390000220F8BD0320F8BD3868A04204D8B100BF
:10E3A00078680919884201D20520F8BD002E0FD0E7
:10E3B000684601F053FA00280CD00098012107604C
:10E3C00001718560C460068201F0F6FA0020F8BD94
:10E3D0000420F8BD0720F8BD342100200EB511201F
:10E3E000694608720A2213A102A87CDF002803D024
:10E3F000134A7821FDF794FEFF20813078DF002852
:10E4000003D00F4A7C21FDF78BFE002000905022A4
:10E41000694601900A80A0224A808880FF209130BE
:10E42000C88068467ADF002803D0054A8621FDF7B8
:10E4300077FE0EBD4443535F5465737465720000EC
:10E44000A4C90100002070470020704700207047D9
:10E45000F8B506464078242104464C4324490C2252
:10E4600050436118224A00254B6824328018AE467A
:10E470002F469C46002B0CD0827A1346D20908D036
:10E480005A0606D40D461A4A614689B2175908350C
:10E490008E46174C008924343B4672462946A9DF34
:10E4A0000B2819D0002800D01248012F13D1707802
:10E4B0000C214843001900890F4AA7DF00280AD021
:10E4C0000E49884212D0082810D0891C88420DD0ED
:10E4D00011280BD00020F8BD70780C21484301238F
:10E4E0000019008972462946A9DFE0E70148F8BD16
:10E4F0001C26002041800000FFFF000002300000C9
:10E5000070B50C46014660782422084D50434019EE
:10E51000382301F035F8002807D1617824225143CF
:10E5200049194A68521C00D14A6070BD1C2600205F
:10E53000F3B589B00D461A206946888368780C21A6
:10E5400003274843224E3B468019008907AA6946A3
:10E55000AADF002838D1687824214843741A0019AA
:10E5600069468A8B0830FCF753FE0028687807D08C
:10E57000242148430119496800290DD0154E0CE0AB
:10E580000C2141438919897A89071DD424214843E4
:10E590000019FCF712FF17E00F4E27506846828BD8
:10E5A000687824214843001942606878484300197C
:10E5B00069460830FCF7E6FD6878242148430119D4
:10E5C000382324220998B04700200BB0F0BD00008A
:10E5D00040260020C9F70100E9F6010010B5FFF759
:10E5E00037FF10BD10B5FFF78BFF10BD10B5FFF75B
:10E5F0009FFF10BD70B5002801D0012070BD184CE0
:10E600000025207B002801D0257301E000F09CF854
:10E6100020780300FDF7E5FB082205080B0E221108
:10E620001C2200F01FF870BD00F07EF870BD00F0F5
:10E6300063F870BD00F03CF870BD06202070608863
:10E640000749000120394018406800F015FE70BDF0
:10E6500007202070656000F01BFE70BD0F2070BDAC
:10E66000442D002070B5104900208A1C0D46034639
:10E67000203D0C18A67A002E08D0A372040164195C
:10E68000A689002E02D1A47B012C08D0401C80B2A8
:10E690000228EED30B704B8004484B6070BD108095
:10E6A00000F042F870BD0000442D00201D1D000048
:10E6B00010B50E4C60880101204620380818818969
:10E6C00000290AD0052020700948022181800168B4
:10E6D00001220848FFF7B2FD10BD4168012205483C
:10E6E000FFF7ACFD0421217010BD0000442D002077
:10E6F0004C2100207421002010B5094907480B68FF
:10E70000898842688900591853880324DB1C0470E7
:10E710009BB20448FFF722FE10BD0000442D0020EC
:10E720004C2100207421002010B506494888091D9D
:10E7300001F0F8F9002802D0FFF7DEFF10BDFFF767
:10E74000B7FF10BD442D0020F0B51D481D490778C6
:10E750000246012502268C88203A3B00FDF741FB4A
:10E76000080517171A212C2C16170189491C01813D
:10E770000021418001730B01D35C002B08D00023E2
:10E780004418491C89B2A3720229F4D30570F0BD64
:10E790000123F5E742685288D21CA2188A800670CD
:10E7A000F0BD45880B682D01AA1855680D605360AF
:10E7B00014818E80062100E007210170F0BD000069
:10E7C000442D00204C21002070B51B4C20790007FF
:10E7D0002ED41A481422017851430D182E6900F0E6
:10E7E0009BFE0146E8882A89761E80188019FCF76E
:10E7F000E6FD21690025002909D06169814206D121
:10E80000E560606801210843606000200AE000F0D4
:10E810005BF9002802D00220E56003E020690028AF
:10E8200003D0032001F01EFD70BDFEF71FFC70BD7C
:10E8300001F00CFD70BD0000F0200020D426002067
:10E840008188054A914204D00088002801D0012027
:10E850007047002070470000FFFF000030B50446FD
:10E86000274895B00FC80EAD0FC526486946888663
:10E870000EA80DAD811E63DF002803D022A2632104
:10E88000FDF74EFC1C2106A8FCF797FD6846017EAB
:10E890000A20014368460176002005906846817D84
:10E8A000F92001400120891C01436846817501203F
:10E8B0000146684610310175012001466846103155
:10E8C00041751421FCF779FD05A8019004210095FC
:10E8D000684601811021818111A00068139013A85E
:10E8E00004906088231D6A4606A9A2DF002803D091
:10E8F00005A28B21FDF714FC002015B030BD0000EF
:10E90000080A0200214300002E2E5C2E2E5C2E2EC3
:10E910005C6463735F736572766963652E63000080
:10E9200087654321F8B50F46002804D00120FFF782
:10E930001BFC0120F8BD397900290AD00026244D9E
:10E9400001290BD0234C022920681FD003293AD17A
:10E9500024E000F09DFC0121397132E0002001012A
:10E96000695C02290BD0401C80B20228F7D3022038
:10E97000FFF702FC0120FFF7F7FB1748F8BD040181
:10E980006019406800F078FC2E551AE0014601221B
:10E990001248FFF753FC0221A18011E000F06CFC4B
:10E9A0000B492368203149880A01094951184D68EB
:10E9B00025604B60A3880B810221A18004498E54FD
:10E9C0003E710028DAD00120FFF7CEFB0E20F8BD03
:10E9D000242D00204C2100201D1D0000742100204A
:10E9E000F8B51E4C2078002837D02069002807D0C1
:10E9F0000026E068002805D00025002E04D013E092
:10EA00000126F6E70125F8E7684652DF052806D01B
:10EA1000002806D0124A9321FDF782FB04E001266C
:10EA200002E0216900988847002D12D1608869466C
:10EA30000880A06861DF052806D0002806D0084AB3
:10EA4000B221FDF76DFB04E0012502E0E168A0685A
:10EA50008847002ED8D0002DCFD0F8BD54210020FB
:10EA6000000B0200418805480288914204D3408887
:10EA7000814201D80120704700207047C820002043
:10EA80001048018CC9B2012917D1818C090714D112
:10EA9000018D09060A0F03D1828D1206120F0ED0C6
:10EAA000090F012903D1828D1206120F07D0032905
:10EAB00003D1808D0006000F01D000207047012097
:10EAC00070470000C00F00F070B50E4814220178A6
:10EAD00051430C18256900F01FFD0146E08822898A
:10EAE0006D1E80184019FCF76AFC07494A6982428A
:10EAF00006D3824202D10869002801D0002070BDEF
:10EB0000012070BDD4260020F0200020800701D015
:10EB10000020704701207047800701D00020704717
:10EB20000120704730B51588EC1C9C4201D90C209F
:10EB300030BD02244C5513881C255B1C9BB21380EE
:10EB4000CD5413885B1C9BB21380012807D0022888
:10EB500007D0032807D0042807D0072030BD0020A5
:10EB600004E0012002E0CC5401E00320C8541088E6
:10EB7000401C1080002030BD10B50448017AC90740
:10EB800002D00078FEF76EF810BD00008C20002047
:10EB9000F8B52C49C8680A690C780F7989688646E7
:10EBA000944600913EE00099E20055182A7836E03C
:10EBB000182353436968521CC918AB78D2B29342E8
:10EBC00000D100220B78022B02D0032B27D123E0A7
:10EBD0004E680346014603E0B14204D00B46C969C2
:10EBE00000291CD0F8E7002919D08B4208D1C06950
:10EBF000002805D1144F0126BE600026B446012727
:10EC00000E68C969D961002909D00B689B190B608E
:10EC100005E00174C06900E000210028F9D169789D
:10EC20009142C5D12146641EE4B20029BBD10549F9
:10EC300062460A61C8600F71704501D00120F8BDBD
:10EC40000020F8BD1421002000100140F8B5044652
:10EC500031480026C168009107784EE02E48F9003F
:10EC600080680D1843E0002C02D02046E4691FE0C4
:10EC70002878182141436A68401CC0B25118287096
:10EC8000AA78904200D12E700A784868012A30D1C3
:10EC9000027C002A2DD18A684260CA6882600A69B3
:10ECA000C260496981611C490979002900D0466028
:10ECB000194943680A699C46991A0902174B090ABF
:10ECC000994202D28268891807E06146511A090206
:10ECD0008268090A8A4202D9511A016000E006607E
:10ECE0004660012186600174C66101F025FB002C9D
:10ECF000B9D1287869788842BAD138467F1EFFB2E8
:10ED00000028ABD10448C1680098814201D001209D
:10ED1000F8BD0020F8BD000014210020FFFF7F0097
:10ED200038B50E4C2078002801D0002038BD0125D0
:10ED3000AB020B4A0BA100200095FCF71DFD00283B
:10ED400007D11023094A0AA10090FCF7EFFC002824
:10ED500001D0082038BD2570E7E7000036210020EB
:10ED60003B2800204E6F726D616C00003B2C002030
:10ED7000496E7075740000000FB408B504A90091C5
:10ED80006A460399FCF776FD01B008BC04B0184749
:10ED900000238AB04F4A05211846FDF745FA00289E
:10EDA00003D04D4A6221FDF7BBF94C4A4C49032080
:10EDB000FDF732FF002804D0FF21474AEA31FDF772
:10EDC000AFF969460020FDF777FE002804D0FF2147
:10EDD000414AED31FDF7A4F968460078022877D062
:10EDE000002069460871FDF7E5FD69460879FEF7E0
:10EDF0005DFCFFF7F3FA3B48FEF7FCFAFDF728F954
:10EE00001C216846FCF7D9FA0521C90301910F219D
:10EE10000904002002910090032269460A73C88108
:10EE2000087431480590314806906846FDF7F2FCB9
:10EE3000002803D0284AC521FDF772F9FFF73EF8F4
:10EE4000002803D02AA22E49FDF76AF92DA108A8AF
:10EE5000FCF70CFA002608A93046FCF7F3FC304D0D
:10EE600031462A4608A8FFF735F8002804D024497F
:10EE70001FA20A31FDF754F921462846FFF768F82A
:10EE8000002804D01E491AA20E31FDF749F925A128
:10EE90000020FCF7D7FC21460020FCF7D3FC25A17D
:10EEA0000020FCF7CFFC0320FDF7BEFB002804D0B8
:10EEB00045210FA2C900FDF733F9FF24F83448DFDC
:10EEC0000028FCD0044A2146FDF72AF9F7E7FFE7BE
:10EED000012086E784210020A4C90100A1CB010004
:10EEE000CD0C00009423002061F10100A1D20100AB
:10EEF0002E2E5C2E2E5C2E2E5C6D61696E2E6300B4
:10EF00000F02000054657374696E6720706F696E3C
:10EF10007465722072657475726E730D0A0000005C
:10EF2000101000004461746120666F756E643A20B1
:10EF3000000000000D0A000010B5044808224168D6
:10EF400091434160007800F0B5FF10BDF020002033
:10EF500070B5144682880E4605462088111D41185A
:10EF6000921C994201D8FE2A01D90C2070BD521C76
:10EF700032542088FF21401C80B2208031542088E8
:10EF8000401C80B220808119288801F00FFB218865
:10EF9000401880B22080AA88002A09D0A9680029D8
:10EFA00008D08019FCF7AAF92088A9884018208089
:10EFB000002070BD072070BD10B504460078002801
:10EFC0000CD0012809D109A10020FCF73BFC6068A6
:10EFD000002802D109490120087010BD606800288E
:10EFE000FBD007A10020FCF72DFC10BD57726974FF
:10EFF000696E672E2E2E0D0A00000000882000206A
:10F000004661696C656420746F20696E697469611A
:10F010006C6973652046696C652044617461205396
:10F02000746F72616765206D6F64756C65000000B8
:10F03000F8B50F46017814460546012902D16878D3
:10F04000002806D02088821C9A422DD8012902D09F
:10F0500006E00720F8BD69784118891C994223D839
:10F06000181A801E86B2684606802188B81C0818C7
:10F0700069467DDF0028EDD12878022805D1694650
:10F080000988B14201D809210AE00821012805D1E7
:10F090006878B04202D86A46108001E0684606806F
:10F0A00068460088FE2801D90C20F8BD2288401C43
:10F0B000B8542088401C80B220803954208869468A
:10F0C000401C20800988401820800020F8BD0020C6
:10F0D00070470020704700207047000082000648FB
:10F0E0001018026803231B049A4302600268090493
:10F0F0000A430260704700000007005003494018AF
:10F100000068012800D00020704700000060004027
:10F110004058002800D001207047032212028018B6
:10F120004068084000D001207047000010B500285A
:10F130000BD0032808D10220FDF760FD002803D082
:10F1400003A2F221FCF7ECFF10BD00F091FE10BD10
:10F150002E2E5C2E2E5C2E2E5C6D61696E2E630051
:10F1600010B50078002809D105483B21408876DF9A
:10F17000002803D003A2A321FCF7D2FF10BD00009A
:10F18000802000202E2E5C2E2E5C2E2E5C6D616960
:10F190006E2E6300F7B51C4D0E4601466A6F0020C7
:10F1A00082B0032A2DD82C4678340827636CBF1B05
:10F1B000BB4226D8286F10188007800F1C225043AE
:10F1C0004019FBF7DFFF686F401C6867002E17D0FF
:10F1D000216C606C40184007800E001900230090DD
:10F1E00009E00498D9000A1806CA009806C06846C3
:10F1F000FDF746FE5B1CB342F3D3606C801960647C
:10F20000012005B0F0BD0000642C00200389CA1C59
:10F210009A1802814289511AC91E41817047000023
:10F22000F7B50D4601218902471804460026083427
:10F230000220288012E02046FFF702FB002817D0AA
:10F240000C48A1684268914200D941606088810001
:10F250000C1929880818C01C28800C34BC4202D222
:10F260002068401CE7D10298002800D00670FEBD3F
:10F270000126EBE73C21002010B501460223024A9B
:10F280000248FFF76BF810BD9C0A020074210020B1
:10F2900010B5044802230168034A0448FFF75EF8EA
:10F2A00010BD00004C210020940A020074210020AF
:10F2B000F8B500252A4F2C462E463868B102401872
:10F2C000284902688A4205D1274A416889181AD01C
:10F2D000012906D000218A0082580346521C0CD115
:10F2E00021E0224900220860091DFFF799FF1F480D
:10F2F0008088022831D008200543761CB6B2032E40
:10F30000DBD3E8B2F8BD1A49002322018B5451180F
:10F310000A4648600E320831FFF782FF022005439B
:10F32000641CA4B2E9E7491CFF29D4D90F490A6833
:10F33000002A0CD00E4A02212301D1549A185060A1
:10F340000B48118120304480641CA4B202E00220EA
:10F350000B60888001200543CFE70420CCE7000044
:10F3600074210020DEC0ADDE02FEE10E4C21002043
:10F37000242D00200021425C002A01D0012070478A
:10F38000491C0629F7D300207047000070B50546D8
:10F390001C200D4968434418204611300621FCF713
:10F3A0000AF820461021FCF706F8FF2121740020FE
:10F3B000A176C0432083284601F0FEF8024A0020CF
:10F3C000A9001C3A505070BD3C250020074909791E
:10F3D000490701D408207047002804D0044949781F
:10F3E0000160002070470E2070470000F0200020D0
:10F3F000D426002070B5134B1B795B0701D408207D
:10F4000070BD002817D0002A15D00368022B10D237
:10F410000C240D4D5C432E59002E0AD0466860190D
:10F4200004894589406861436543711828188842FA
:10F4300003D8072070BD0E2070BD136000205160FE
:10F4400070BD0000F0200020A0270020FEB504467B
:10F4500026480E460079400701D40820FEBD002C46
:10F4600025D02068022836D20C21214D4843295846
:10F47000002930D040194189028940685143091858
:10F480006068814227D9FFF741FB002811D06068EE
:10F49000019021680C2251434F1979680091401A5C
:10F4A00039890D46FBF78BFF002914D103E00E20AC
:10F4B000FEBD1020FEBD29463046FBF780FF002927
:10F4C00009D1002E07D07889009945430198491940
:10F4D0008019884201D90720FEBD00200246009015
:10F4E000334621460320FDF7FFFDFEBDF02000203E
:10F4F000A027002010B507484469601C06D000F022
:10F500000BF801462046FBF75AFF10BD012000070B
:10F51000406910BD0010001001200007006980B292
:10F520007047000070B500241348254604704470ED
:10F530002846FDF7C9FD6D1C0A2DF9D30F4D6C80CF
:10F54000FFF7D8FFC61EFFF7E7FF46430A4A002031
:10F55000AE60CC326C610C214143545089180C814F
:10F56000401C4C810228F6D32C70AC610420EC6165
:10F570006860002070BD0000D4260020F02000202C
:10F58000FFB5284881B000791F4616460C46400753
:10F5900002D4082005B0F0BD002C1DD00198002831
:10F5A0001AD02068022815D20C211F4D4843295833
:10F5B00000290FD041194A890889496842435118E6
:10F5C0006268914206D9002E04D0B04202D3F119EC
:10F5D000814203D90720DDE70E20DBE70198FFF722
:10F5E00095FA00281BD03846FFF790FA002816D06D
:10F5F0006068FFF78BFA002811D060683246C119A5
:10F600000198FBF77BFE009620680C2148432D589B
:10F61000002202212046019BA8470020BAE71020C3
:10F62000B8E70000F0200020A0270020F8B52C4DFE
:10F63000044628790E46400701D40820F8BD002C66
:10F6400020D0002E1ED0206800281BD0FFF764FFBA
:10F650000146A088814213D3102811D3E0880028E6
:10F660000ED0FFF747FF471EFFF756FF4743E288DC
:10F67000A188A8684A431218974201D3890703D08A
:10F680000720F8BD0E20F8BD6988022926D0316018
:10F690000C22144B51437060CA18506020685850B7
:10F6A000A0881081E0885081FFF736FF0646FFF7FB
:10F6B00033FFA188E288401E514340183146FBF7D2
:10F6C00088FE0446FFF728FF0146A8686143081832
:10F6D000A8606888401C68800020F8BD0420F8BD40
:10F6E000F0200020A0270020F8B5044621481E463F
:10F6F000007915460F46400701D40820F8BD002FB9
:10F700001CD0002C1AD02168022915D20C204143AC
:10F7100019484258002A0FD00818428901894068C8
:10F720004A4310186268904206D9002D04D0A942BD
:10F7300002D3A819884203D90720F8BD0E20F8BDCE
:10F740003846FFF7E3F9002811D03046FFF7DEF91D
:10F7500000280CD06068FFF7D9F9002807D02B46A5
:10F760003A46214601200096FDF7BEFCF8BD102068
:10F77000F8BD0000F0200020A027002010B511499E
:10F7800002460878002811D004280FD0022A16D08B
:10F79000032A0BD10A79120711D48A69521C8A6193
:10F7A000032A08D0022802D000F084FB10BD48785C
:10F7B00000F058FD10BD0D20FCF70EFD10BDFEF74A
:10F7C000F3FC10BDF0200020F8B5044621481E4689
:10F7D000007915460F46400701D40820F8BD002FD8
:10F7E0001CD0002C1AD02168022915D20C204143CC
:10F7F00019484258002A0FD00818428901894068E8
:10F800004A4310186268904206D9002D04D0A942DC
:10F8100002D3A819884203D90720F8BD0E20F8BDED
:10F820003846FFF773F9002811D03046FFF76EF91C
:10F8300000280CD06068FFF769F9002807D02B4634
:10F840003A46214604200096FDF74EFCF8BD1020F4
:10F85000F8BD0000F0200020A027002070B505466C
:10F860000B48426D042A10D0016D8918042900D379
:10F870000021521C4265142251430C1811462046A7
:10F88000FBF79BFD01202C6070BD002070BD0000C7
:10F89000D827002010B518481422016D51430C18C8
:10F8A000406D00281FD02079012802D0022816D1EF
:10F8B0000FE0218A608A091AFF2901DC8AB201E07F
:10F8C000FF220132A1688000E3680918181829DFB7
:10F8D00001E0208928DF112806D0002803D0092163
:10F8E000204600F05DFA10BD0449FD220878104062
:10F8F00004221043087010BDD827002034210020B6
:10F90000F0B52B4C1C22216F85B051430D1929787D
:10F91000284E00270B00FCF764FA07190509090DAA
:10F920000D1119002946FEF7FDFF09E0294600F0F8
:10F93000BFFF05E02946FDF797FD01E0FEF75AFEFF
:10F9400000282FD0B04202D1019710E00F20019083
:10F950002878022801D0032809D11548AA7D7830DB
:10F96000016C89180164AA7D416C891A4164694659
:10F970002846FEF75DFA6846FEF790FA206F1C21D4
:10F9800048430019FBF719FD606F00280CD0216F68
:10F99000491C8907890F2167401E606704D0002039
:10F9A000FFF7AEFF05B0F0BD0420FEF7DDFBF9E781
:10F9B000642C00201D1D000010B5054801784A0781
:10F9C000920F04D1022211430170FFF763FF10BDB3
:10F9D0003421002010B505480078400705D40420E4
:10F9E000FEF7CAFB0020FFF78BFF10BD3C21002073
:10F9F000012252075110886B496B414388187047A8
:10FA0000F8B507461D481C46007815460E46800787
:10FA100001D40220F8BD002D01D0002C28D10520F2
:10FA2000F8BD01011648405C00281ED116E0206890
:10FA3000002F03D081883A8891420FD1002E03D045
:10FA400001883288914209D1806828602068686006
:10FA50000B482030008928810020F8BDA08821466D
:10FA600000F060F80028E2D12060A088401CA0804F
:10FA7000A0880228D5D30A20F8BD00003C21002030
:10FA8000242D0020F8B505464068244F00260C467A
:10FA9000002828D022490A68824224D84968814235
:10FAA00021D3FFF739F800281DD0288939898842E9
:10FAB00019D103CD083D8A68904214D13A460020FE
:10FAC000203A0125AD0203019B185B688B4204D2EA
:10FAD0005B198B4201D9208011E0401C80B20228C2
:10FAE000F1D30020F8BD268000960AE0009829682E
:10FAF0008068884205D10098686038892881012093
:10FB0000F8BD2088694600F00DF80028EED1208865
:10FB1000401C80B220800228E6D3E2E7442D00207A
:10FB200074210020F8B50E460A68124900014518F4
:10FB3000002A04D05088800084180C3401E06C68DE
:10FB400008340127BF026868C019A0420FD9206895
:10FB5000401C0CD02046FEF773FE002802D0012086
:10FB60003460F8BD6088800004190C34EBE7002095
:10FB7000F8BD0000242D002010B501460123044AE1
:10FB80000448FEF7EBFB002800D00E2010BD00005B
:10FB9000900A02007421002070B504461248002526
:10FBA000436C002B08D0026CD500521C52072D1854
:10FBB000520F5B1E43640264A08AAB888000411828
:10FBC0000A482A68FEF7CAFBA18AAA888918A18276
:10FBD000A17D491E0906090EA17501D101212174DB
:10FBE000002800D00E2070BDDC2C002074210020E5
:10FBF00070B501240B49600408600B49401088600F
:10FC0000094940398860094D6C602F20FBF7AAFA3A
:10FC1000AC60074D00242F202C61FBF7A3FAEC7099
:10FC200070BD000080E100E0401301400010014081
:10FC30001421002030B50A48FF21C57D0022094C5F
:10FC40000931094B002D625007D09969437EC26883
:10FC5000D154417E491C417630BD986930BD0000C9
:10FC6000B826002000200040002500401FB50123D9
:10FC70006A46137010720348019106C8684690479F
:10FC80001FBD0000B826002038B504460948009082
:10FC9000A0420DD0FFF7ACFE0546234606A100208A
:10FCA000009AFFF769F82A1B10A10020FFF764F8FB
:10FCB000002038BD8020002052414D205354415235
:10FCC00054204144445220307825782073686F7561
:10FCD0006C642062652061646A7573746564207465
:10FCE0006F20307825780D0A0000000052414D2029
:10FCF00053495A452073686F756C642062652061B2
:10FD0000646A757374656420746F20307825782078
:10FD10000D0A000010B50121202805DA1A4A814099
:10FD2000114201D1194810BD8107C90E002808DA17
:10FD30000207120F083A9208154B9200D218D269A6
:10FD400004E08208134B9200D2181268CA401106D0
:10FD5000890F042911D200290FD002290DD00E4994
:10FD60004C68C306DB0E01229A40002C08D04009E3
:10FD700080000B5813430B5004E00448401C10BD96
:10FD800006480260002010BDFC06FFBC01200000F8
:10FD900000ED00E000E400E06821002000E100E068
:10FDA0000EB500220092019202920379012B02D03B
:10FDB000022B11D106E06B461A70C2680192028ACA
:10FDC0001A8109E001236A46137002894389D31A14
:10FDD0006A4693800389D3800068826868469047AA
:10FDE0000EBDFFB50746806A81B0144600283DD09D
:10FDF000002538462030009033E00C20B96A684373
:10FE00000E18B088801CFE2802D90C2005B0F0BD69
:10FE100022880299401C885420881622401C80B2F7
:10FE2000208002990A542088401C80B220800299C8
:10FE30004118308800F0BAFB2188401880B2208039
:10FE4000B288002A0AD0B16800290FD0029BC018DE
:10FE5000FBF754FA2088B188401820806D1C009868
:10FE6000EDB2007BA842C8D80020CFE70720CDE73D
:10FE700010B50020FCF7C2FE002803D009A2D8214B
:10FE8000FCF74EF9FCF77EFE002803D005A2DC212A
:10FE9000FCF746F93CDF002803D002A2E021FCF782
:10FEA0003FF910BD2E2E5C2E2E5C2E2E5C6D6169EE
:10FEB0006E2E630010B50F490028087009D0012884
:10FEC00011D0022812D0032802D14869FEF7ACF9FC
:10FED00010BD00208861C861074840780028F7D02D
:10FEE000FDF7D6F810BD00F075F910BD00F0D4F89C
:10FEF00010BD0000F0200020D4260020002803D0F0
:10FF00000249C860002070470E207047542100202D
:10FF10007CB50446144801900246009013A10020CD
:10FF2000FEF72AFF6946204660DF044601990098E3
:10FF300088420ED0FFF75CFD054615A10020009A0F
:10FF4000FEF71AFF009821A12A1A0020FEF714FFDD
:10FF500007E0002C05D0224626A10020FEF70CFF6A
:10FF6000FEE720467CBD00008020002073645F62B5
:10FF70006C655F656E61626C653A2052414D20533D
:10FF80005441525420617420307825780D0A0000C5
:10FF900073645F626C655F656E61626C653A206177
:10FFA00070705F72616D5F626173652073686F75F9
:10FFB0006C642062652061646A7573746564207482
:10FFC0006F20307825780D0A0000000072616D20E6
:10FFD00073697A652073686F756C6420626520614F
:10FFE000646A757374656420746F20307825782096
:10FFF0000D0A000073645F626C655F656E61626C20
:020000040002F8
:10000000653A206572726F7220307825780D0A008B
:1000100070B50E460546144614211046FBF7CDF97F
:100020000120002120802161217326726572002D3C
:1000300000D0A072002070BD10B5FCF763F810BDB1
:10004000FFB581B01D4616460C46FEF769FE002C32
:1000500001D0A00702D0072005B0F0BD2046074C14
:100060000127A060668065600549019810DF0028BF
:10007000F2D127701620FFF74DFEEDE75421002046
:1000800039000200002803D00249086100207047AF
:100090000E20704754210020F8B5164C14226068D9
:1000A0004008400060601448017851430E183769D9
:1000B000FFF732FA01463846FBF781F905466061E1
:1000C000FFF72AFA0146F0887F1EC019FBF777F97F
:1000D00002228542606801D1104300E090436060D5
:1000E000E1681040084303D0002000F0BBF8F8BDE1
:1000F0000220FAE7F0200020D426002010B50248A4
:100100004069FEF791F810BDF020002010B5FFF710
:10011000F1F9441EFFF700FA4443FFF7FDF90449E3
:100120004A69521E5043CA682146FEF782F810BD44
:10013000F0200020F8B510481422017851430C1823
:100140002569FFF7E9F90146E088228980184019FE
:10015000FBF735F90F46FFF7CDF9461EFFF7DCF93F
:100160004643E0882289F1198018044A401912692F
:10017000FEF75FF8F8BD0000D4260020F020002034
:1001800070B5FFF7C9F90546FFF7B4F9441EFFF74C
:10019000C3F960432946FBF712F9FEF745F870BD35
:1001A00070B5FFF7B9F98608FFF7B6F9074949694D
:1001B00048430446FFF79EF9451EFFF7ADF9684333
:1001C00032462146FEF735F870BD0000F0200020D1
:1001D0000020704770B514481422017851430C1860
:1001E000241DFFF799F96188104E884211D2FFF75C
:1001F00093F961880D1AFFF78FF98208A188E068EA
:100200004018216940194919FEF713F8FFF784F9DE
:1002100007E0A288E06880188A082169FEF709F8DB
:100220006088F06170BD0000D4260020F02000201E
:1002300010B505480079000703D4012000F012F83A
:1002400010BD00F003F810BDF020002010B50448E8
:100250000822416891434160407800F003F810BDE6
:10026000F0200020024948700249800008580047E9
:10027000F0200020680A020010B50446FFF77EFA5D
:100280002046FCF785F910BD10B505480079000738
:1002900002D4FCF7EBFE10BDFFF7D8FF10BD000045
:1002A000F0200020FEB51F4C00252769E068029071
:1002B0006846FDF79DFD0190FEF76AFC0646019831
:1002C000002822D000230098E16817E00E680A4653
:1002D000864202D9301A086012E0801BF31800260B
:1002E0001660D668D169B446002E07D0FE183602D3
:1002F000360A566066469660D56115460029E5D1F6
:100300002846E160FEF7A2FC06E02846FEF79EFCC8
:10031000002801D1002E02D00298FCF729FF00200E
:100320002071FEBD14210020012002490005086053
:100330007047000000E200E010B50E4BD9680029BC
:1003400006D002680C68A24204D8A21A0A60C161F1
:10035000D86010BD0B4604E00B46C969121B00298A
:1003600004D00C689442F7D3A41A0C600260C161F7
:10037000D86110BD14210020F8B51E4DEC68002C8A
:1003800037D01D48002740682969401A0602360AFE
:100390002068B0421BD8361AC7192246107CE4697F
:1003A000002812D0002010746B69002B0AD09169CC
:1003B00050699847002808D0FF2110A26631FBF74A
:1003C000AFFE02E0516990698847002CE0D169785E
:1003D000A878814206D1401CC0B2A870022801D181
:1003E0000020A87003490006800D18310F50FFF758
:1003F0009BFFF8BD14210020001501402E2E5C2E1D
:100400002E5C2E2E5C2E2E5C2E2E5C2E2E5C636FB0
:100410006D706F6E656E74735C6C69627261726927
:1004200065735C74696D65725C6170705F74696D31
:1004300065722E6300000000FF2107481D31002275
:1004400042500648828A8168895C828A521C828274
:100450000348C1617047000000200040B82600201A
:10046000002500401FB500216A4611701072044833
:1004700082680192817506C8684690471FBD0000DA
:10048000B8260020F0B5454D012185B04902284627
:10049000FEF743FE01270026414C002824D0FF210F
:1004A00025312846FEF734FE00281DD0FF202530D8
:1004B0002E5081203B4980008860A07E002800D11A
:1004C0006F60022168460170374908680860039030
:1004D000E17D68460172E0680190E675267606CCFB
:1004E0006846083C90472BE004212846FEF715FE9D
:1004F000002825D0FF2109312846FEF709FE0028F3
:100500001ED0FFF797FBE07D617E884218D1207EE8
:10051000002808D0627EE168E0752069E0602676F8
:10052000667610460AE0A07E002800D16F60812028
:100530001C4980008860E675607EE168FFF796FBE5
:10054000FF211D312846FEF7E3FD00280DD0A18ACA
:10055000A07D814202D2FFF76FFF06E0FF211D312F
:100560006E50002801D0FFF77DFFFF21453128465E
:10057000FEF7CEFD00280ED0FF2045302E50A07E85
:10058000002800D02F60E07D002804D0E675607E52
:10059000E168FFF76BFB05B0F0BD000000200040F4
:1005A000B826002000230040802400400870000A84
:1005B00048700220704700000121814002484268D3
:1005C0008A43426070470000D820002038B51549A2
:1005D000154A488890420FD04A78144C521CD2B227
:1005E0004A70237B934208D3091D75DF002803D08E
:1005F000A169002900D0884738BD00254D70217CB5
:10060000002907D03B2176DF002803D0A16900290B
:1006100000D0884761690029EED068460570884798
:1006200038BD0000C4200020FFFF0000042500208A
:10063000EFF30580C005C00D1AD0103840B2002875
:1006400008DA0107090F083989080C4A8900891856
:10065000C96904E081080A4A890089180968800785
:10066000C00EC1400806800F012803D0032803D024
:1006700002207047002070470120704700ED00E025
:1006800000E400E042788378521CD2B2934200D159
:1006900000220378934201D1002070470A7041681C
:1006A00040781822504308187047FFB583B01646AB
:1006B0000C9D0D9C1F46022200950194039800F0AA
:1006C0000CF8002807D13B461022314600950194D2
:1006D000039800F002F807B0F0BDFFB583B00746FD
:1006E00000200C9C8646268805463AE07868A900DA
:1006F00042181188684681805188C180002269466D
:1007000001A865DF002839D1684601780598814243
:1007100026D17046002801D0002200E00222208865
:10072000891842180D998A4227D8714600290AD1A2
:10073000401C80B22080069A049911542088401CE5
:10074000208001208646218806980A18694601A85B
:1007500065DF002812D1694620880978401820807A
:100760006D1C3888A842C1DC704600280AD0208859
:10077000801B401E80B2FF2802D90C2007B0F0BDBC
:10078000069988550020F9E70179002902D1007BFC
:10079000002800D001207047FFB5054600208BB02F
:1007A000064608903F480C460078800702D4022095
:1007B0000FB0F0BD002C0CD021883B4881420AD0FC
:1007C0006088002807D060680A9020890027099077
:1007D0000BE00520ECE70420EAE70A98F90040580E
:1007E000FEF79AF9002825D07F1C09988742F4D398
:1007F0000D98002820D00088694688830D98468887
:1008000068460E99017000270774818B4182217A16
:1008100081750321818223494868401C4860039008
:1008200021886846018161888180C6800E980328EE
:1008300015D019E00320BBE70020218906E0C200A3
:100840006368121D9A5A921996B2401C8142F6D8DA
:1008500007A9304600F0A8F80028A9D1D0E7042065
:100860006946087428680690694608984881218975
:1008700068466268FEF78EFC00280CD0002D06D07A
:100880006F60039828600948AF7200892881FFF7DC
:10089000A1F800208CE76846818B304600F07AF89A
:1008A000082085E73C210020FFFF0000442D0020A8
:1008B000F8B50C46498A344A09018E18002805D03B
:1008C000E1883046FEF7A2FC0120F8BD318970684E
:1008D00089004518217C2C480027D8380B00FBF7ED
:1008E00080FA070F2F1A2905414F51004760A1696F
:1008F000016025486946D838FFF7C4F8002808D0B9
:1009000029460123221D2148FDF728FD02212174DB
:1009100022E00A20F8BD2246294601230C32083184
:100920001A48FDF71BFDA17D002901D0032212E02A
:10093000012210E029462046FFF72EF9074617E06E
:10094000224601230832291D1048FDF707FD2178B2
:10095000032905D00622227400280FD00E2709E0B3
:100960000522F8E74068FFF707F9074606202074DC
:10097000002F03D0E1883046FEF748FC3846F8BD2A
:10098000034FF7E70F27F5E7242D002074210020FF
:100990001D1D00000A01034951184A89101AC01E82
:1009A00048817047242D002030B5C01C82B2FE2A39
:1009B00001D3092030BD0E4B002004011D5D002D28
:1009C0000FD1E5182C896D89A4182C19A4B2FF2C1D
:1009D00007D808800001C01841898918418100208A
:1009E00030BD401C80B20228E7D3072030BD000094
:1009F000242D0020010000079E9E9BD4A4E6ACA7F6
:100A00009C49A4F7FDDD16119E9E9BD4A4E6ACA7DD
:100A10009C49A4F7FDDD16119E9E9BD4A4E6ACA7CD
:100A20009C49A4F7FDDD1611A0230020C02300205F
:100A3000E4240020FFFFFFFFD7F0010031E50100B3
:100A40004DE40100EDE50100D3F0010001E50100F6
:100A500049E40100E5E50100CFF0010051E40100A7
:100A600045E40100DDE5010081010200A101020071
:100A7000FD000200350102000D01020031020200FA
:100A8000CDD3010079D3010089020200C9E701003A
:100A90000000FFFFDEC0ADDEFF011EF1DEC0ADDEF7
:100AA000FE011EF1303132333435363738394142A8
:100AB000434445462E2E5C2E2E5C2E2E5C2E2E5C44
:100AC0002E2E5C2E2E5C636F6D706F6E656E747370
