:020000040001F9
:10B0000038420020BDB10100D7B10100D9B1010023
:10B010000000000000000000000000000000000030
:10B02000000000000000000000000000DBB1010093
:10B030000000000000000000DDB10100DFB10100F0
:10B04000E1B10100E1B1010069BA0100E1B1010023
:10B05000E1B101000000000031B50100E1B10100E3
:10B06000E1B10100E1B10100E1B10100E1B1010094
:10B07000E1B10100E1B10100E1B10100E1B1010084
:10B08000E1B10100C9B60100E1B10100E1B1010087
:10B0900095B90100E1B101009DB90100E1B10100E4
:10B0A000E1B10100E1B1010000000000000000007A
:10B0B0000000000000000000000000000000000090
:10B0C00000F002F800F03EF80CA030C80838241850
:10B0D0002D18A246671EAB4654465D46AC4201D1D0
:10B0E00000F030F87E460F3E0FCCB64601263342C4
:10B0F00000D0FB1AA246AB46334318476452000007
:10B1000084520000103A02D378C878C1FAD85207A6
:10B1100001D330C830C101D504680C60704700000D
:10B120000023002400250026103A01D378C1FBD863
:10B13000520700D330C100D50B6070471FB51FBD4B
:10B1400010B510BD00F0C9F91146FFF7F7FF03F085
:10B1500043FC00F0E1F903B4FFF7F2FF03BC00F099
:10B1600013FE0000401E00BF00BF00BF00BF00BFB5
:10B1700000BF00BF00BF00BF00BF00BF00BFF1D1D4
:10B180007047000070B505460C46164602E00FCC2D
:10B190000FC5103E102EFAD2082E02D303CC03C5E1
:10B1A000083E042E07D301CC01C5361F03E02178E9
:10B1B0002970641C6D1C761EF9D270BD03210C48E9
:10B1C00002680A4302600B4802680A4302600A48A8
:10B1D00080470A480047FEE7FEE7FEE7FEE7FEE796
:10B1E000FEE7000006480749074A084B7047000081
:10B1F0002405004054050040C9B90100C1B0010058
:10B200003832002038420020383A0020383A0020F6
:10B21000034610B50B439B070FD1042A0DD308C872
:10B2200010C9121FA342F8D018BA21BA884201D916
:10B23000012010BD0020C04310BD002A03D0D30759
:10B2400003D0521C07E0002010BD03780C78401C8E
:10B25000491C1B1B07D103780C78401C491C1B1B85
:10B2600001D1921EF1D1184610BD0000034670B501
:10B2700002460B439B070FD10E4CE60100E008C2CB
:10B2800008C91D1B9D433542F9D0D9B21170521C1B
:10B2900000290DD01B0AF8E70B78491C1370521CCB
:10B2A000002B05D00B78491C1370521C002BF3D1D6
:10B2B00070BD000001010101F8B5042A2CD38307F9
:10B2C00012D00B78491C0370401C521E83070BD010
:10B2D0000B78491C0370401C521E830704D00B7866
:10B2E000491C0370401C521E8B079B0F05D0C91AC6
:10B2F000DF002023DE1B08C90AE0FFF743FFF8BD8B
:10B300001D4608C9FD401C46B4402C4310C0121F06
:10B31000042AF5D2F308C91A521EF0D40B78491C3E
:10B320000370401C521EEAD40B78491C0370401C69
:10B33000012AE4D409780170F8BD01E004C0091FB6
:10B340000429FBD28B0701D50280801CC90700D0DD
:10B350000270704700290BD0C30702D00270401C56
:10B36000491E022904D3830702D50280801C891E4E
:10B37000E3E70022EEE70022DFE7002203098B4229
:10B380002CD3030A8B4211D300239C464EE0034684
:10B390000B433CD4002243088B4231D303098B4238
:10B3A0001CD3030A8B4201D394463FE0C3098B426E
:10B3B00001D3CB01C01A524183098B4201D38B01C7
:10B3C000C01A524143098B4201D34B01C01A52416A
:10B3D00003098B4201D30B01C01A5241C3088B42AF
:10B3E00001D3CB00C01A524183088B4201D38B009A
:10B3F000C01A524143088B4201D34B00C01A52413C
:10B40000411A00D201465241104670475DE0CA0F12
:10B4100000D04942031000D34042534000229C46D2
:10B4200003098B422DD3030A8B4212D3FC228901DC
:10B4300012BA030A8B420CD3890192118B4208D3B2
:10B44000890192118B4204D389013AD0921100E014
:10B450008909C3098B4201D3CB01C01A5241830928
:10B460008B4201D38B01C01A524143098B4201D355
:10B470004B01C01A524103098B4201D30B01C01A80
:10B480005241C3088B4201D3CB00C01A52418308FA
:10B490008B4201D38B00C01A5241D9D243088B4250
:10B4A00001D34B00C01A5241411A00D201466346F3
:10B4B00052415B10104601D34042002B00D5494257
:10B4C000704763465B1000D3404201B50020C04680
:10B4D000C04602BD704770477047754600F024F8BB
:10B4E000AE46050069465346C008C000854618B000
:10B4F00020B5FFF777FE60BC00274908B646002656
:10B50000C0C5C0C5C0C5C0C5C0C5C0C5C0C5C0C513
:10B51000403D49008D46704710B50446C046C046C0
:10B520002046FFF718FE10BD00487047D8310020B4
:10B53000F0B50025FF248BB0013401262F4601957C
:10B54000204603F073FB002808D04748406830428B
:10B5500004D046480021201835430160241D7600A0
:10B560007F1CA4B2042FEBD3FF207D3003F05EFBE1
:10B57000002807D03E4800210160400705433D48B0
:10B58000006901903C4C280712D0012700262F4269
:10B590000AD03A48B200111808690969C004C00EFF
:10B5A0008903A258890F90477F00761C042EEED3A2
:10B5B000002D57DA00200590401E4DE0A1194031C2
:10B5C00008788506AD0E42B2521C39D00121A9403F
:10B5D000089A0091114233D080090390284601F067
:10B5E000FFFB800020580490002802D10398032814
:10B5F00026D103980099032802D1059808430590A5
:10B600001F4AA80080180068019A8003800F114229
:10B6100002D0022802D013E0032811D10399032994
:10B6200007D102281CD00221284603F0EFFA7F1C24
:10B63000FFB20498002803D0049A28460399904743
:10B64000761C042EBAD3002F0CD00A480069019949
:10B65000884207D00190059800273E460890ADE744
:10B660000321E1E70BB0F0BD006300400060004043
:10B670007C610040000500506C2600200065004001
:10B68000000700508307FF22DB0E9A408907090E4E
:10B69000994000280BDA0007000F08388308084893
:10B6A0009B001818C36993430B43C3617047830819
:10B6B00004489B001B1818689043084318607047A3
:10B6C00000ED00E000E400E010B50649002008604D
:10B6D00048608860C860034940390860486004F0E9
:10B6E0000BFB10BD40110140FFB5114F04463878E7
:10B6F00081B01D461646002801D100F0B9F97869DD
:10B70000A04211D918200A4960434118002C06D0E4
:10B710000298CE640D6588640020886548650A98A3
:10B72000C865002005B0F0BD0020C043FAE7000066
:10B7300060310020FFB5114F0446387881B01D46B6
:10B740001646002801D100F093F93869A04211D9BA
:10B7500018200A4960434118002C06D00298CE6197
:10B760000D6288610020886248620A98C8620020E1
:10B7700005B0F0BD0020C043FAE7000060310020B2
:10B7800070B5074B0646187814460D46002801D1BF
:10B7900000F06EF922462946304600F003F870BDED
:10B7A0006031002070B50E461821484313491446F5
:10B7B0004518E86A1835002804D001280FD002285F
:10B7C00005D113E0284600F089F9A04201D20024F7
:10B7D00011E022463146284600F0ABFA0BE028463D
:10B7E00000F07CF9A042F4D20446F2E73146284644
:10B7F00000F06FFA0446204670BD00006031002062
:10B80000F7B598B007A80290402000250495039052
:10B8100018980C46059506902178641C002977D06D
:10B82000252907D002A800F035FA05980028F3DA98
:10B830001BB0F0BD01220021022713460826207804
:10B8400023281BD02B2816D02D2802D0302806D133
:10B8500001E0194300E03943641C002AEFD10022C3
:10B8600020780346303B0A2B0AD20A235A43121887
:10B87000303A641CF4E704200143EDE73143EBE781
:10B880000023C7B22E2F0AD1641C20780746303F10
:10B890000A2F04D20A277B431B18303BF4E76C289D
:10B8A0000DD068280BD0702852D00BDC25285AD038
:10B8B00058282ED063280CD0642858D110E0207866
:10B8C000641CECE7732832D0752817D078284ED145
:10B8D0001FE01A981A9A0068011D1160017843E070
:10B8E0001A981A9F0068061D3E6000680191009238
:10B8F00001460A2202A800F0FCF838E01A981A9FC4
:10B900000068061D3E600068009201910A2209E06D
:10B910002FE01A981A9F0068061D3E60006800928A
:10B9200001911022014602A800F048F91FE01A9880
:10B930001A9A0068011D116006683178761C00298A
:10B9400015D002A800F0A6F905980028F5DA0EE057
:10B950001A981A9A00680823011D116001681022C4
:10B9600000960195DFE7252102A800F093F9641CF9
:10B970005BE70598002800DC5AE70498002804D00B
:10B98000024607A91898FFF7FBFE0499059840188E
:10B9900005904DE710B504F045F910BD10B5084805
:10B9A0004068002808D08047002804D0FF21054ABD
:10B9B000673100F07DFB10BD02F036FE10BD0000C7
:10B9C000502100200803020010B502F07DFE00287F
:10B9D00005D01F491D484860C8131E4988611E488C
:10B9E000018CC9B201290BD1828C120708D1028DBA
:10B9F0001206120F042A03D1828D1206120F0AD0EA
:10BA0000012921D1818C09071ED1018D0906090F59
:10BA10000A2904D007E0114A01219160F5E7828DDF
:10BA20001206120F05D00D290ED1808D0006000FD1
:10BA30000AD10B480168012904D00A490160016854
:10BA40000129FCD1C021416110BD0000DFFF07C00A
:10BA500000050040006C0040C00F00F000060040F0
:10BA600000EC06407593000010B504F0CBF910BD52
:10BA700010B5124C02202061606111A0A061134832
:10BA8000E0610120800220620020A06260620CA1BF
:10BA9000A1642146E0621039E16410212165A065AE
:10BAA0006065E0650AA1E01DFFF7E0FB09A1204603
:10BAB000FFF7DCFB2020A07110BD000060310020EA
:10BAC0005465726D696E616C00000000502D00209D
:10BAD0005254540053454747455200000269C1681B
:10BAE0008A4203D88068401A801800E0501A401E2D
:10BAF0007047FFB583B00E4670420D9F0C9C0090BE
:10BB0000002900DB0846012502E0FFF740FC6D1C20
:10BB100005998842F9DA0698A84200D90546002C12
:10BB200004D0002E01DB780700D5641EB80702D5CB
:10BB30000698002810D0F8070ED1002C0CD0A54292
:10BB40000AD22021641E039800F0A4F80398C0686C
:10BB50000028F2DA07B0F0BD0398C0680028F9DBCE
:10BB6000002E02DA2D21009E02E0780707D52B2156
:10BB7000039800F08FF80398C0680028EADBB80744
:10BB8000800F022810D1069800280DD1002C0BD070
:10BB9000A54209D23021641E039800F07BF8039877
:10BBA000C0680028F2DAD5E7019700943146069B79
:10BBB000059A039800F002F8CCE70000FFB581B0C9
:10BBC00001261F4634460A9D029802E0FFF7D5FB86
:10BBD000641C03998842F9D2A74200D93C460B98CD
:10BBE000C00718D1002D16D00B98800701D5002F63
:10BBF00002D0202000900CE03020FBE76D1E009961
:10BC0000019800F047F80198C06800283DDB002D3E
:10BC100001D0AC42F2D30198C068002835DB012F77
:10BC200001D97F1E06E031460298FFF7A6FB039973
:10BC3000884202D303984643F1E7154F31460298F4
:10BC4000FFF79BFB0146029A7143511A0291395C3E
:10BC5000019800F01FF80198C068002805DB304605
:10BC60000399FFF78AFB0600E8D10B98C0070CD0B8
:10BC7000002D0AD0AC4208D220216D1E019800F0A0
:10BC800009F80198C0680028F2DA05B0F0BD00009C
:10BC9000AC02020010B5044680686368421C9342FF
:10BCA00005D323681954A260E068401CE060A268D4
:10BCB0006068824209D121682069FFF761FDA168AF
:10BCC000884203D00020C043E06010BD0020A06087
:10BCD00010BDF7B5064682B000200090F468174604
:10BCE0003069A04201D9051B02E0B168201A0D1A83
:10BCF000B0686D1E001BA84200D80546BD4200D3A7
:10BD00003D4670682A4600190399FFF7D5FA009856
:10BD10007F1B401900900398641940190390B06884
:10BD2000A04200D10024F460002FD9D1009805B0C2
:10BD3000F0BDF7B5C668174604468068851B606885
:10BD4000BD4206D980190199FFF7B6FAF019E060F3
:10BD5000FEBD2A4680190199FFF7AEFA01987E1BB5
:10BD6000411932466068FFF7A7FAE660FEBD30B4BD
:10BD70007446641E2578641CAB4200D21D46635D88
:10BD80005B00E31830BC1847FEE7F7B584B0002528
:10BD9000168807461580406B1446002813D0037898
:10BDA0000598032E51D30221017021881122491CCC
:10BDB00089B2218042542188491C89B22180435490
:10BDC0002088401C2080386B00281DD00546208824
:10BDD000059902461232B24237D811220A542088FD
:10BDE0001022401C80B220800A542088401C2080F1
:10BDF0000F202A5C2388401ECA54228840B2521C5D
:10BE000022800028F5DA0025384620300290807B19
:10BE1000002806D033462246059902F0A7FC05000B
:10BE200014D10298407B002806D03246214605985E
:10BE300000F02AFD050009D1B878002823D0059824
:10BE400086462088001DB04202D90C2007B0F0BD04
:10BE5000684679DF0028F9D12188032072465054C2
:10BE600020881921401C80B22080115420887146FE
:10BE7000401C80B2208041186846008804F056F8C3
:10BE8000218840182080F878002817D021880323C3
:10BE90000A46FB56C91C0598B142D6D802218154E6
:10BEA00021880122491C89B2218042542188491CE1
:10BEB00089B2218043542088401C20807868002863
:10BEC00017D021880023C3560A46C91C0598B142E1
:10BED000BBD80221815421880A22491C89B22180C1
:10BEE00042542188491C89B2218043542088401C37
:10BEF0002080388900280AD000943846019606220E
:10BF000002210830059B04F090F805009ED1388A84
:10BF100000280AD0009438460196072203211030E9
:10BF2000059B04F082F8050090D1388B00280AD0D8
:10BF3000009438460196152214211830059B04F010
:10BF400074F8050082D1386A002806D033462246AC
:10BF5000059901F01DF90500D8D1786A002806D0AE
:10BF600033462246059902F0C7FD0500CED102985E
:10BF7000007B002807D0334622463846059903F057
:10BF8000F0FB0500C2D13878002807D0334622469E
:10BF90003846059902F0E4FD0500B7D1284655E77B
:10BFA00010B501220221002000F0EEFD002801D092
:10BFB000072812D107220221012000F0E5FD002808
:10BFC00001D0072809D100210A22084600F0DCFD33
:10BFD000002801D0072800D1002010BD30B521A2D3
:10BFE00007CAADB029AB07C3592120A8018329A8EE
:10BFF0002890092120A88183382101A8FFF7BBF9E7
:10C00000012468460471032141710621C17126A8EB
:10C010000A906846847124211DA8FFF7ACF920A876
:10C020000470FF202D302190B4202290002538216B
:10C030000FA8FFF7A0F908A8057710A884810C487D
:10C04000009514900B4B1DAA0FA901A800F098F9B8
:10C05000002804D0FF21084ADF3100F029F82DB074
:10C0600030BD0000444353486F737421000000004A
:10C07000842000205DEC010034C9010004484268BE
:10C080000121C9050B46934383600A40C260704793
:10C090000005005070B5064614460D460C2000F011
:10C0A00075FD22462946304600F010F870BD0000AC
:10C0B0000EB56B461980019202906A460021024833
:10C0C000FFF7E8FF0EBD00000140000018B5012495
:10C0D0006B461C701B78144B186059609A601349AA
:10C0E000401807D001280FD1DA60D868008898611D
:10C0F000D86807E01A611869806858611869008873
:10C10000986118694068D861186858689868D86854
:10C11000186958699869D86972B668460078002825
:10C12000FBD162B618BD0000B4270020FFBFFFFF9F
:10C13000014B1B68184700004826002038B50C4604
:10C14000A2680C235A43064B09789D58054A126A87
:10C1500000920246204608302369A84738BD0000F7
:10C160009C270020EC20002010B5064914230A78F3
:10C170005A435118091DFFF7E1FF042003F05AFB51
:10C1800010BD0000D02600200A4B9B68002B07D072
:10C19000002A07D0002805D00068037C002B03D0BC
:10C1A00008207047072070470023037441744261E0
:10C1B0001846704710210020FFB59007002581B078
:10C1C00014460E46002832D11B4F002C31D003F00C
:10C1D000CFF904987861032038703346182122463D
:10C1E00000204B43BC601834C10089180D704D709D
:10C1F0008E704C601C19401C0328F5DBFD607D70BF
:10C2000001240E48BD702405046003211420FFF7AB
:10C2100039FA0B4804600B4C0198A06003211120EF
:10C22000FFF730FA60683861002005B0F0BD0720E4
:10C23000FBE7BD60FBE700001021002080E200E08A
:10C2400000E100E000150140FEB50D461B49174610
:10C250008968044600292AD0002C28D0052D01D257
:10C260000720FEBD6069002821D0607C012820D015
:10C27000002603F09DFEC000104901908968401817
:10C28000694603F0BFFE002815D0012101700C495A
:10C29000446049680830E2C008490198896841183B
:10C2A00068460078487003F0FFFC0020FEBD0820BF
:10C2B000FEBD2E46DDE70420FEBD0000102100205B
:10C2C00000150140F8B5134D0446A96800291CD09B
:10C2D000002C1AD06069002817D00026267403F0BD
:10C2E00067FEC700A8686946381803F08BFE00286F
:10C2F0000DD0022101704460A868391868460078A2
:10C30000487003F0D1FC3046F8BD0820F8BD042089
:10C31000F8BD000010210020F0B50C4693B01F219D
:10C320006A461180072600279180002809D0C1782D
:10C3300049070DD502A9FFF728FD002809D102AD54
:10C3400001E000251780002C0ED0E078002802D0F4
:10C35000304613B0F0BD01AA0AA92046FFF715FD2B
:10C360000028F6D10AAA02E06846002287806846C3
:10C370008088C3B268460088C1B2284672DFE8E709
:10C3800070B50D4604991646040042D0002E40D0E8
:10C39000424800224271C360016124223146404874
:10C3A000FEF7F0FE00F0D4F83D493431084610386D
:10C3B00001602031816038215C38FEF7DCFF3848AD
:10C3C000217838380170A1788170E178C170617886
:10C3D00041706269216942610161E268A168C260DD
:10C3E00081600146E369A269CB618A61616A0029C3
:10C3F00019D00146AC310246B83241628A60636AA4
:10C400001B880B80616A436A898899800021436A8E
:10C4100006E00E2070BD666AB668765C5654491C0C
:10C420009E888E42F7D8A16A00291CD01C4AAC32E3
:10C4300011460C398A608162A36A9B888B80A16A4D
:10C44000836A098819800021836A04E0A66AB668B5
:10C45000765C5654491C9E888E42F7D82C210A5D82
:10C460000F4918390A73216A002909D00B49143180
:10C470000162226A52884A80216A026A0988118010
:10C480006168002904D00549891D416061684160E7
:10C49000034829463838FFF73FFF70BDA020002031
:10C4A0001424002010B502881C4C102A17D000213B
:10C4B000112A1AD01B2A11D1007A00280ED16079D6
:10C4C00001281ED0022822D0032822D0042805D11A
:10C4D0002171E2680846002A00D0904710BD817D96
:10C4E0000129FBD18088208110BD6170808821895D
:10C4F0008842F9D1012005E021690029F4D088475C
:10C5000010BD022000F058F80028F5D110BD03201E
:10C51000F8E7032020710420F4E70000A0200020A9
:10C5200010B5022801D003280ED1084C207800282D
:10C530000AD000202070607900F03EF8002803D077
:10C540002169002900D0884710BD0000A0200020EC
:10C5500010B507210148FEF70EFF10BDB8200020DE
:10C5600010B51348007801281FD1124C60780028BC
:10C570001BD16079002802D074DF002816D1012079
:10C580000B49607006203839C870094800213838D6
:10C59000FFF7C2FE002809D1607900F00DF80028ED
:10C5A00003D02169002900D08847002010BD000079
:10C5B00014240020A0200020F0B5784C87B06071D2
:10C5C000002606A8069602F0CFFB0127082802D015
:10C5D000002808D104E006A801F0D8FC002804D106
:10C5E0000698002801D02770D4E0FFF7B1FF6C4D0A
:10C5F0006878002802D06079012807D0A878002840
:10C600000CD06079012801D0022824D1E1680029EA
:10C6100003D0E7700820884700E0E67060790128C1
:10C6200008D16878002809D05C48193002F070FB06
:10C63000002803D06079022802D00CE0022060714B
:10C64000A878002805D05548193002F061FB002871
:10C6500001D103206071287B002804D16079032870
:10C6600001D104206071287E002804D1607904285B
:10C6700001D166712671E16800290AD0607903282A
:10C6800001D0042805D12878002802D0607800283D
:10C6900017D0A67018216846FEF76DFE6846067032
:10C6A000019606720396607901280ED0022815D0F3
:10C6B0003B4E243637465C3F03281BD004285DD10F
:10C6C0003AE0A77007208847E4E734481830019023
:10C6D0006846077046820682277152E02F4818305C
:10C6E00001906846077029894182A9880182022049
:10C6F000207146E0A88A69464882288A088228482C
:10C70000243003F001FD002805D02878002802D04D
:10C710006078002801D003202FE0022069460872CB
:10C7200004200396F8701E4800213838FFF7F4FD06
:10C73000002830D1052020E0A88B69460882288C8B
:10C7400048821748243003F0DFFC002805D0287801
:10C75000002802D06078002801D004200DE00220DB
:10C760006946087204200396F8700D480021383895
:10C77000FFF7D2FD00280ED1062020716079002835
:10C7800003D0684673DF002805D1E168002901D095
:10C7900020798847002007B0F0BD0000A0200020CD
:10C7A0001424002070B5054601461C220E48FEF7F1
:10C7B000E9FC0E4C002626702968002906D00822C4
:10C7C000201DFEF779FD201D7ADF02E00748001DDD
:10C7D0007BDF002807D1401E60806670044A00217C
:10C7E0000448FFF7D1FC70BD00250020C0200020C8
:10C7F0004DFF010038020200F8B5214C02880027E5
:10C800001E4DE689102A15D01E49112A21D0122A60
:10C810002DD0502A1CD1C288801DB24218D1428925
:10C82000022A15D1427B037B10021843C007C00FB8
:10C830000CD112E081886980014610480822183125
:10C840000C30FEF739FD6F70002E01D100F0F2FCC4
:10C85000F8BD0020C04368806F700868FFF732FDA4
:10C860000028F5D0A1690029F2D08847F8BD082238
:10C87000811802480C30FEF71FFDE7E7C0200020BA
:10C8800000250020380202007CB5054608880C46C9
:10C890000930904201D90C207CBD684671DF002828
:10C8A000FAD121880820685420881B21401C80B2BE
:10C8B00020802954208800A9401C80B22080401983
:10C8C00006220131FEF7F8FC20886946801D80B2FF
:10C8D00020800978002900D0012129542088401C9B
:10C8E000208000207CBD000070B5044600F0DAFE18
:10C8F0002046FFF781FF204600F0D0F820880C4D3D
:10C90000102802D011280FD10BE0072000F03EF9CB
:10C91000002804D0FF2107A20A31FFF7C9FBA08835
:10C9200001E00020C04368802046FFF7BBFD70BDDA
:10C93000802000202E2E5C2E2E5C2E2E5C6D6169D8
:10C940006E2E630000B5254887B00068059000236F
:10C950004822234905A803F033F8002804D0FF211A
:10C9600020A24431FFF7A4FB6A460121002003F016
:10C970000FF8002804D0FF211AA24A31FFF798FBD4
:10C980001C4802F041FE002804D0FF2115A24D31C1
:10C99000FFF78EFB012069460873684602F078FFB6
:10C9A000002804D0FF210FA25231FFF781FB12486B
:10C9B00002F064FF002804D0FF210AA25631FFF7DD
:10C9C00077FB0E4803F01EF8002804D0FF2105A2D3
:10C9D0005A31FFF76DFB07B000BD0000FC010200FB
:10C9E000482300202E2E5C2E2E5C2E2E5C6D61695D
:10C9F0006E2E6300E81F0020E9C80100F9FB01006A
:10CA00001CB5044681786A460C4802F0C1F900283A
:10CA100012D160781C21484309491C2340181A464A
:10CA2000694602F07BFA064806494C30807A80005D
:10CA30000A582146684690471CBD0000E4200020AB
:10CA4000FC250020500202007CB5134E00250C4648
:10CA50003060002918D06946002000F065F80028F1
:10CA600019D101A9012000F05FF8002813D1684610
:10CA700001790020002901D0022004E069460978EC
:10CA8000002900D00B2020707068002802D1FFF729
:10CA900087FA054628467CBD9820002010B51C4C1E
:10CAA0000188606810290DD011290AD1401E6060EC
:10CAB00007D1FFF775FA002803D02168002900D0BC
:10CAC000884710BD00281ED100210122084600F031
:10CAD0005BF8002801D0072811D10722022101208C
:10CAE00000F052F8002801D0072808D104220221C2
:10CAF000002000F049F8002805D0072803D021685D
:10CB0000002900D088476068401C606010BD0000AC
:10CB10009820002010B5032000F060F9002801D013
:10CB2000062800D1002010BD0020087070470000CA
:10CB300010B5042806D0072810D00A2801D102F029
:10CB400057FE10BD0B481321408876DF0828F8D027
:10CB50000028F6D0FF2108A26F3108E0FFF700FDA2
:10CB60000828EED00028ECD0FF2103A27731FFF790
:10CB70009FFA10BD802000202E2E5C2E2E5C2E2EC3
:10CB80005C6D61696E2E63000720704710B5054A21
:10CB90000146127A0020D20702D0084600F02AF897
:10CBA00010BD00008820002010B50D4A5160906033
:10CBB000C00706D007210B48490581600022C260EA
:10CBC0008161094A00210948FFF7DEFA002805D1F2
:10CBD0000648074A0121001DFFF7D6FA10BD0000E4
:10CBE0008820002000050050C1E70100300202004B
:10CBF0007DC00100FEB5764D0322EB6892059A4395
:10CC000002936B6800939C0006461B1900200121CB
:10CC10000193490507466F4C3300FFF7A8F8180D3C
:10CC20001515374755677C7F887F88D695959595EC
:10CC300095BFC5C8CFD6D6140721029A490591439E
:10CC4000A160E7602F70FEBDA260E7606068072208
:10CC500052055040800209D5A160E760022E02D142
:10CC6000E120C0000AE07D20400107E0E160A7600C
:10CC7000022E01D1C82001E0FF2091302E706421E6
:10CC8000FEF77BFB0099414300223FE0A260E76092
:10CC90006068072252055040800204D5A160E76019
:10CCA00019204001EAE7E160A760E3E7A260E760DE
:10CCB0006068072252055040800202D5A160E760FB
:10CCC000D1E7E160A760D7E7A260E760606807226C
:10CCD00052055040800202D5A160E76001E0E160AA
:10CCE000A7602E700098410000220FE0A260E7606C
:10CCF0006068072252055040800202D5A160E760BB
:10CD000001E0E160A7602E700099002232480068BF
:10CD1000FFF79AFAFEBDA260E76012E060680121A9
:10CD200089050A468243A2600840E060ECE760683B
:10CD3000012189050A468243A2600840E06001990A
:10CD4000D2E7E160A7602DE023484068FFF7BAFA18
:10CD500011218A1B01D0002807D00722E96852055B
:10CD60001140A160E760EF60FEBD0121C905E960E7
:10CD7000012A0CD91046C82148436421FEF7FDFA68
:10CD800069680022414314484068FFF75DFA0722B2
:10CD9000E96852051140E160A760FEBD0721490521
:10CDA000A160E7602E70FEBD03229205B3E7052166
:10CDB0004905A160E76001218905C2E70121C90594
:10CDC000A160E76003214905BBE707214905B8E7F2
:10CDD0008820002000050050300202000620704725
:10CDE0000249091820200856704700006C260020D0
:10CDF000002807D00449814204D80449814201D95E
:10CE00000120704700207047702100208021002001
:10CE100030B50446274895B00FC80EAD0FC526485B
:10CE2000694688860EA80DAD811E63DF002803D0F9
:10CE300022A22921FFF73CF91C2106A8FEF79BFA44
:10CE40006846017E0A20014368460176002005906D
:10CE50006846817DF92001400120891C0143684614
:10CE60008175012001466846103101750120014697
:10CE70006846103141751421FEF77DFA05A801902E
:10CE80000B210095684601811021818111A207CAFA
:10CE900012AB07C312A804906088231D6A4606A936
:10CEA000A2DF002803D005A25121FFF701F90020DD
:10CEB00015B030BD00020200341200002E2E5C2E90
:10CEC0002E5C2E2E5C6463735F7365727669636596
:10CED0002E630000667764732C736D752C736D0080
:10CEE000F8B53E481422017851430C18E0680C2133
:10CEF00048433A492769CC31401805894189009156
:10CF0000241D466801F0D6FF01463846FEF735FA83
:10CF1000002932D000200099A2884D436188AE19C3
:10CF20008918CD1900222E4900280A6109D001F084
:10CF3000C1FF6188884222D0B54202D1A088002872
:10CF40001DD0A06803281AD001F0B4FFA188CA1927
:10CF500001461046FEF711FA214C8808E06001F006
:10CF6000A9FF01462846FEF708FA002911D0002043
:10CF7000B5422FD000280ED02CE00120CBE701F0E5
:10CF800099FF01463846FEF7F8F915494861032034
:10CF900021E00120ECE7ADB2B7B201F08BFF014612
:10CFA0003846FEF7EAF9064601F084FF01462846B6
:10CFB000FEF7E3F9864201D1781B09E001F07AFF20
:10CFC000064601F077FF01462846FEF7D6F9701AAB
:10CFD00080082061022002F02DFCF8BDD026002040
:10CFE000EC20002010B5074814220178514308189E
:10CFF0000079042802D000F059F810BD012002F099
:10D0000019FC10BDD026002010B50B481422017861
:10D0100051430818094AC18811620079012806D0D5
:10D02000032801D0042801D1FFF75AFF10BD0120C9
:10D0300002F000FC10BD0000D0260020EC200020F3
:10D0400014225043054A002180180171C180022238
:10D050000161C2604161018170470000D02600205B
:10D06000F8B5104C069E65780A2D19D027787D19E1
:10D070000A2D00D30A3D14277D432D1928716A61BA
:10D0800003C92961E860EB802E816078401C6070E4
:10D0900005480078002801D1FFF7B6FF0020F8BD51
:10D0A0000420F8BDD0260020EC20002010B50D4C47
:10D0B00014212078484301190020091DFFF73EF88C
:10D0C0002078FFF7BDFF6078401E60702078401C1C
:10D0D000C0B220700A2801D100202070002002F088
:10D0E000A9FB10BDD0260020F8B52348C16800294F
:10D0F0003ED00E6821494C680769C078E11B0D02DB
:10D100002D0AED1C002814D101201D4A0004506096
:10D110001B4A403A50601B49400008601A490860A9
:10D120001A49012008602F20FEF71CF8124901203F
:10D13000C870B54200D23546E81900020F4B000A0C
:10D14000403318600D4A5168001B091B0902090A87
:10D150000002000AC91C814209D9506818602F20BA
:10D16000FEF700F801200749400480390860F8BD47
:10D1700002F0FEF9F8BD000010210020001501406A
:10D180004013014080E200E000E100E000100140B7
:10D19000F8B50646108814468446801D0D46984210
:10D1A00001D90C20F8BD32880720062AFAD31927A6
:10D1B000FF01184BBA4201D99A42F3D1718806296E
:10D1C000F0D3B94201D99942ECD19A4203D09942A5
:10D1D00001D08A42E6D805216046295420881221D0
:10D1E000401C80B2208029542088401C80B22080BE
:10D1F0004119308802F09AFE2188401880B22080C0
:10D200004119708802F092FE218840182080002089
:10D21000F8BD0000FFFF000010B502A2AE21FEF72E
:10D2200047FF10BD2E2E5C2E2E5C2E2E5C6D61698C
:10D230006E2E6300F8B5164801F038FA144D00263A
:10D240000C3D144C002807D0616900291CD0012036
:10D250006A461070684616E02878002805D0616993
:10D26000002911D0684606700DE0687800280DD0BE
:10D27000A168094800220068FEF7E6FF002803D0F5
:10D28000A169002900D088472E70F8BD6168F0E7D9
:10D29000CC200020002500203802020070B5094B88
:10D2A00004469E7A082000250E4207D00648844294
:10D2B00002D01889A04202D10020156070BD05205F
:10D2C00070BD00003C260020FFFF00000C214843F9
:10D2D000064910B5012240188272911E0181FF217A
:10D2E000C1720721FEF745F810BD00003C26002062
:10D2F00010B5134C207900071FD46069401C606191
:10D30000E068002801D0042004E001F001FA0028C0
:10D3100003D0022002F066FC10BD2069002809D06D
:10D320006068C10701D00320F4E701210843606071
:10D330000020EFE7FFF756FE10BD02F047FC10BDDE
:10D34000EC20002010B5084841680A0708D48A0775
:10D3500002D5012211434160022002F043FC10BDBE
:10D3600002F034FC10BD0000EC20002010B5144B7E
:10D3700004460FCB86B003936B4607C3114869463A
:10D3800008821231684663DF002803D00EA29E2176
:10D39000FEF78EFE0020C0432080A21C04A90120BD
:10D3A000A0DF002803D008A2A821FEF781FE2046B6
:10D3B000FFF72EFD204601F075F806B010BD000005
:10D3C00020020200C0D100002E2E5C2E2E5C2E2EDC
:10D3D0005C6463735F736572766963652E630000D6
:10D3E000F0B585B00C46002802D0012005B0F0BD94
:10D3F000207900270126002806D01F4D012820D0C3
:10D4000002282CD00F20F1E702970397E0680190E3
:10D41000694601A801F0F6FF00280ED00298818825
:10D42000E18000882081029802F066F86946098848
:10D430000A01124951188E7300E00A20022121715D
:10D44000D4E70F4B6A460021A01D01F099FF002888
:10D4500007D00B4908398F60CF600A28C6D128460B
:10D46000C4E7019802F048F8054989880A01034990
:10D4700051188E73F1E700001D1D0000202D0020C3
:10D4800040210020FEB50E46044681786A462348B6
:10D4900001F07EFC002826D160780C21204F484303
:10D4A000C019807A40061FD4022E1DD0012E1DD037
:10D4B0001C4DA0781C2148431B49002341181C2205
:10D4C0006846A847002813D0022E0CD020780C21E3
:10D4D000484313490C314018807A144980000A5897
:10D4E000214668469047FEBD114DE2E7114DE0E749
:10D4F000022EF8D060780C214843C019817ABF22EF
:10D500001140817260781C21484305494039411817
:10D510001C231A466846A847D8E70000E4200020EC
:10D520003C26002051FB010038250020400202006B
:10D5300065F1010085F0010070B50546114A1248F9
:10D5400000241C2363431B189B7EFF2B04D0641C08
:10D55000072CF6D3104670BD0A78022A09D01C2287
:10D5600062431018FD22827607221030FDF7A4FED8
:10D5700004E01C2161430818FE2181762C700022F2
:10D58000E8E700004380000038250020F7B50525B6
:10D590000F4F06460024002E0AD01C206043C019FD
:10D5A000072231461030FDF733FE002807D00AE08D
:10D5B0001C206043C019018B0298814203D101985D
:10D5C0000025046002E0641C072CE4D32846FEBD5D
:10D5D000382500207CB5054681B26A46074801F02F
:10D5E000D7FB040008D17421684601F0FDFB04005C
:10D5F00002D1284601F098FB20467CBDE4200020A3
:10D6000010B5100004D0FF2102A28931FEF750FDB1
:10D61000002010BD2E2E5C2E2E5C2E2E5C6D6169BE
:10D620006E2E63001FB56946087301F049FC00289F
:10D6300004D0FF21184AA331FEF73AFD03A800F0F9
:10D640002DFA002804D0FF21134AA631FEF730FD41
:10D6500001A805210130FDF78CFE684640790121C3
:10D6600008438D22104030304206520E6846427107
:10D67000072282711022C271084800906846017129
:10D680006946074800F036FB002804D0FF21024A13
:10D69000B431FEF70DFD1FBD34C9010001D60100F4
:10D6A00080200020F0B591B00546FF2400200794AB
:10D6B0000290EC48007800284BD0EB4F38680028E7
:10D6C00047D001A800F0DCF9002803D0E74AE84978
:10D6D000FEF7EEFC281D05902C2069460883FF20EC
:10D6E000002688710E710396DF4C28880C3C1028A8
:10D6F0000ED0A88803AA0221FFF7D0FD002807D189
:10D7000003980C2141430919CA7A69468A71487104
:10D710002888132219287DD00FDC10281BD011284F
:10D7200055D0132877D0142813D103980C214843DF
:10D730000019C07AFF2874D090E0CE491A286CD026
:10D740001E286BD0522804D1B87A8000095801A84D
:10D75000884711B0F0BD03AA0121C748FFF79EFD1D
:10D760000028F6D103990C20484302220019827246
:10D7700011276B461F745971A9880181294682724D
:10D78000083107220F46FDF797FDE87DC10707D056
:10D790004108B4480830405CFF2808D0079006E0F4
:10D7A000B54A07A93846FFF7F1FE00280ED10398C5
:10D7B0000C22504300190799C172827A08231A4338
:10D7C00082726846817101A8FFF71AF936E1039861
:10D7D0000C2148430119887AFD2210408872010704
:10D7E00006D5C0090DD0002101A8FFF74BFE08E0C7
:10D7F00068468079FF2804D001F096FAFF20694638
:10D80000887103980C225043102100198172122054
:10D81000694604E07AE032E003E0D3E00CE108740A
:10D820000CE12A8A07A90020FFF7B0FE00280ED1DC
:10D8300003980C22504300190799C172827A082379
:10D840001A4382726846817101A8FFF7D9F80398DC
:10D850000C2148430019C07AFF2806D003981C21E8
:10D86000484381494C394018029003981C21484391
:10D8700082494218A8880023029986DF69E7684632
:10D88000027403980C2148430119887A042210433A
:10D890008872CA7AFF2A0BD0402210438872162061
:10D8A000694608740023A8881A4685217FDF21E095
:10D8B00007A8FFF741FE00281FD0064600200D9064
:10D8C00003990C224A431219D27A1C235A436B4BF8
:10D8D0000F90D2180E921C2251431A46C432891856
:10D8E000109009910A900B900C903A1DA88809ABF2
:10D8F00000217FDF0028C1D1A0E069460798887128
:10D9000003990C2251430919C872D7E7787A0C2180
:10D9100040084000787203986F4602464843011958
:10D9200084468B7AFB2003408B7214203874287A4B
:10D93000002806D0580603D4C87AFFF74BFE2E7A8B
:10D940007CE0687A400779D5B879FF2876D0082737
:10D950003B438B726B7B9B0708D51C2503466B43AF
:10D96000464D5B199D7E6D086D009D76CB7AFF2B31
:10D9700064D06346E35C022B10D01C2250433F4D21
:10D98000072240191030FDF797FC684680791C216A
:10D9900048434019817EFD2211400DE01C214A437D
:10D9A00031494C3951184A8A1C214843334940189F
:10D9B0000283817E490849008176012101A8FFF791
:10D9C00061FD3BE0287A0209012A23D10007000FFC
:10D9D00001281FD103980C2242431219927A120790
:10D9E00018D5242148432049303940181A210830DD
:10D9F000FDF7C1FC16206946087403980C214843C2
:10DA00000119887A602210438872787A02210843CB
:10DA100078720FE003980C2250430019827A802319
:10DA20001A43827215206A461074B87A8000095829
:10DA300001A88847002601E068460274324604A91E
:10DA400001A8FEF775FB6846007C122800D080E62E
:10DA500003980C2141430919897A0129F7D0FFF76E
:10DA600035FC76E6D420002048260020BC020200C7
:10DA7000F109000060020200FFFF000038250020CD
:10DA8000002806D0FF21017041708170C170002014
:10DA900070470148704700000E800000F0B585B067
:10DAA000040036D029480025056045728572284655
:10DAB000FFF70CFC254824213038FDF75CFC0026DC
:10DAC000FF27304601F030F921488755761C072E94
:10DAD000F7D37421684681800721C1801D481C4905
:10DAE00000900831684601F06FFA00280FD1184EF7
:10DAF0000120083E3070207800280CD069468888C4
:10DB0000C988484381B23046103001F06DF905B044
:10DB1000F0BD1148FBE7114F00240D48A1B202AA45
:10DB2000083001F035F9002809D11C206043C019E4
:10DB300000231C2202A901F0F1F9002801D0357060
:10DB4000E5E7641C072CE8D3E1E700004826002045
:10DB5000DC20002061DB01000E8000003825002061
:10DB6000FFB55D4891B000681A9F1E46002875D029
:10DB7000742F73D86846FFF783FF002803D0574AF5
:10DB80005749FEF795FA002468460470047125464B
:10DB900005970696A9B20FAA524801F0F9F8002895
:10DBA00006D108220FA91198FDF732FB002817D0E3
:10DBB0006D1C072DEED368468578FF2D4ED0129848
:10DBC000032810D048481C21301AFDF7D6FB012746
:10DBD00007281ED204A80290139800280BD011E049
:10DBE00068468570E7E7742F03D0402069460871C6
:10DBF0006BE02020FAE738463A49A84010394968D6
:10DC0000084260D0284602F097F920206946087142
:10DC100049E031481C214C38301AFDF7AEFB002892
:10DC20001DD02D4824213038301AFDF7A6FB010005
:10DC30002E482BD040216A4611712D498E4244D086
:10DC4000294AA9001C3A5158B1423CD104A9029179
:10DC5000C07A854227D16846447024E033E004A8A6
:10DC600002902020694608714C701B490B940C31BE
:10DC70000C9158390791694689781C2251431A4AF8
:10DC800005908918089107A906910CE03022694691
:10DC90000A714C70CF70807A800704D41348242115
:10DCA0002438FDF768FB129869460228087910D0DD
:10DCB000022108436946087104A8029001A9684638
:10DCC000139AFEF735FA15B0F0BD694608790321BD
:10DCD000EFE73843EFE7000048260020BC020200CF
:10DCE000A1050000E4200020382500203C2600206B
:10DCF0003C02020070B5064618480D460078002820
:10DD00000ED01749002E0ED0002D0CD02868002808
:10DD100009D0144C2168002907D011480A3870BD79
:10DD20000F48801F70BD084670BD20600522691D28
:10DD3000201DFDF7C1FA2879A072207A022140083F
:10DD400040000843FB2210402072E0790123184371
:10DD500008431040E0710020307070BDD4200020D6
:10DD60000E8000004826002010B50E4900234A7896
:10DD70008C78A24212D0521CD2B24A70022A00D130
:10DD80004B704A78074B920018339A580260086922
:10DD900010180002000A0861012010BD0360002075
:10DDA00010BD00001021002010B5047800222300CF
:10DDB000FDF7DDFF070605070D1D262C06000A707E
:10DDC00010BD01220A7002898A81828814E0022231
:10DDD0000A7002898A818288CA81C2688A60007C4E
:10DDE000062802D00020087410BD0120FBE70322A2
:10DDF0000A70C2888A810289CA81C068886010BDA1
:10DE000004230B70C0888881CA8110BD052008706A
:10DE100010BD000070B5064D06460024A00029582C
:10DE2000002901D030468847641C032CF6D370BD0E
:10DE3000542C002002490A7882430A70704700007F
:10DE40003821002002490A7802430A707047000016
:10DE50003821002010B5002803D0112802D0FEF789
:10DE600083F910BD0248082241681143416010BD8A
:10DE7000EC20002010B51C4C217820464068012978
:10DE800006D0022929D0032912D1000717D513E0A3
:10DE9000000711D415481422017851430818C1888D
:10DEA000A28B891A0904090CC18002D001F052FE2C
:10DEB00010BDFFF7FBF810BD00F012FE10BD606949
:10DEC000401C606100F024FC002803D0207801F0A1
:10DED000B1FC10BDFFF786F810BD607804498000E2
:10DEE0000858804710BD0000EC200020D0260020FC
:10DEF0008402020010B528DFFFF7ACFF10BD10B59B
:10DF000029DFFFF7A7FF10BDF8B506461B481546E9
:10DF100000780C46C0070AD03046FEF769FF00289B
:10DF200007D0002C07D0A00507D00620F8BD01209F
:10DF3000F8BD0220F8BD0320F8BD3068A04204D827
:10DF4000A80271680019884201D90520F8BD002D8A
:10DF500010D0684601F050F900280DD00098022139
:10DF600006600171A101090C0181858101F0F2F9BE
:10DF70000020F8BD0420F8BD0720F8BD30210020A6
:10DF800010B5084601F08AF910BD0000002804D041
:10DF90000349496D0160002070470320704700006D
:10DFA000D4270020F8B507461D481E4600781546C0
:10DFB0000C46C0070ED03846FEF71AFF00280BD0DB
:10DFC000002D0BD0002C09D028462043800707D015
:10DFD0000620F8BD0120F8BD0220F8BD0320F8BDE1
:10DFE0003868A04204D8B10078680919884201D283
:10DFF0000520F8BD002E0FD0684601F0FDF800287E
:10E000000CD000980121076001718560C460068210
:10E0100001F0A0F90020F8BD0420F8BD0720F8BDEC
:10E02000302100200EB51120694608720A2213A182
:10E0300002A87CDF002803D0134A7821FEF738F8C5
:10E04000FF20813078DF002803D00F4A7C21FEF7C3
:10E050002FF8002000905022694601900A80A022EB
:10E060004A808880FF209130C88068467ADF002887
:10E0700003D0054A8621FEF71BF80EBD4443535FCB
:10E08000546573746572000034C901000020704744
:10E090000020704700207047F8B5064640782421DC
:10E0A00004464C4324490C2250436118224A00255F
:10E0B0004B6824328018AE462F469C46002B0CD06D
:10E0C000827A1346D20908D05A0606D40D461A4A57
:10E0D000614689B2175908358E46174C0089243499
:10E0E0003B4672462946A9DF0B2819D0002800D0EC
:10E0F0001248012F13D170780C2148430019008970
:10E100000F4AA7DF00280AD00E49884212D00828FB
:10E1100010D0891C88420DD011280BD00020F8BDEA
:10E1200070780C2148430123001900897246294662
:10E13000A9DFE0E70148F8BD182600204180000073
:10E14000FFFF00000230000070B50C460146607809
:10E150002422084D50434019382300F0DFFE0028E8
:10E1600007D161782422514349194A68521C00D1D1
:10E170004A6070BD18260020F3B589B00D461A20FC
:10E180006946888368780C2103274843224E3B4622
:10E190008019008907AA6946AADF002838D1687863
:10E1A00024214843741A001969468A8B0830FDF708
:10E1B0002FF80028687807D02421484301194968BE
:10E1C00000290DD0154E0CE00C2141438919897AA4
:10E1D00089071DD4242148430019FDF7CCF817E026
:10E1E0000F4E27506846828B6878242148430019D7
:10E1F000426068784843001969460830FCF7C2FF5E
:10E200006878242148430119382324220998B0470B
:10E2100000200BB0F0BD00003C26002065F101009D
:10E2200085F0010010B5FFF737FF10BD10B5FFF7FF
:10E230008BFF10BD10B5FFF79FFF10BD70B5002814
:10E2400001D0012070BD184C0025207B002801D092
:10E25000257301E000F09CF820780300FDF787FDAE
:10E26000082205080B0E22111C2200F01FF870BDB9
:10E2700000F07EF870BD00F063F870BD00F03CF86F
:10E2800070BD0620207060880749000120394018C1
:10E29000406800F021FD70BD07202070656000F02F
:10E2A00027FD70BD0F2070BD402D002070B51049B6
:10E2B00000208A1C0D460346203D0C18A67A002E2D
:10E2C00008D0A37204016419A689002E02D1A47B90
:10E2D000012C08D0401C80B20228EED30B704B807A
:10E2E00004484B6070BD108000F042F870BD000023
:10E2F000402D00201D1D000010B50E4C608801014E
:10E30000204620380818818900290AD0052020706D
:10E31000094802218180016801220848FFF7F4FDC5
:10E3200010BD416801220548FFF7EEFD0421217070
:10E3300010BD0000402D0020482100207021002049
:10E3400010B5094907480B6889884268890059183F
:10E3500053880324DB1C04709BB20448FFF722FEA1
:10E3600010BD0000402D0020482100207021002019
:10E3700010B506494888091D01F094F8002802D01C
:10E38000FFF7DEFF10BDFFF7B7FF10BD402D0020E7
:10E39000F0B51D481D4907780246012502268C88E4
:10E3A000203A3B00FDF7E3FC080517171A212C2C37
:10E3B00016170189491C01810021418001730B015D
:10E3C000D35C002B08D000234418491C89B2A372E7
:10E3D0000229F4D30570F0BD0123F5E742685288A5
:10E3E000D21CA2188A800670F0BD45880B682D01EA
:10E3F000AA1855680D60536014818E80062100E0D4
:10E4000007210170F0BD0000402D002048210020B0
:10E4100070B51B4C207900072ED41A4814220178BD
:10E4200051430D182E6900F045FD0146E8882A8900
:10E43000761E80188019FCF7A0FF216900250029AD
:10E4400009D06169814206D1E56060680121084315
:10E45000606000200AE000F05BF9002802D0022092
:10E46000E56003E02069002803D0032001F0BAFB37
:10E4700070BDFEF7B7FD70BD01F0A8FB70BD0000D8
:10E48000EC200020D02600208188054A914204D04B
:10E490000088002801D0012070470020704700004C
:10E4A000FFFF000030B50446274895B00FC80EADF9
:10E4B0000FC52648694688860EA80DAD811E63DF0C
:10E4C000002803D022A26321FDF7F2FD1C2106A83B
:10E4D000FCF751FF6846017E0A2001436846017639
:10E4E000002005906846817DF92001400120891CAB
:10E4F0000143684681750120014668461031017567
:10E50000012001466846103141751421FCF733FFA4
:10E5100005A80190042100956846018110218181A0
:10E5200011A00068139013A804906088231D6A4608
:10E5300006A9A2DF002803D005A28B21FDF7B8FDB4
:10E54000002015B030BD0000100202002143000081
:10E550002E2E5C2E2E5C2E2E5C6463735F736572B0
:10E56000766963652E63000087654321F8B50F4621
:10E57000002804D00120FFF75DFC0120F8BD3979A7
:10E5800000290AD00026244D01290BD0234C022952
:10E5900020681FD003293AD124E000F0A9FB012113
:10E5A000397132E000200101695C02290BD0401C66
:10E5B00080B20228F7D30220FFF744FC0120FFF7C6
:10E5C00039FC1748F8BD04016019406800F084FB6D
:10E5D0002E551AE0014601221248FFF795FC022150
:10E5E000A18011E000F078FB0B49236820314988B5
:10E5F0000A01094951184D6825604B60A3880B81B9
:10E600000221A18004498E543E710028DAD00120F5
:10E61000FFF710FC0E20F8BD202D0020482100201F
:10E620001D1D000070210020F8B51E4C2078002828
:10E6300037D02069002807D00026E068002805D0E0
:10E640000025002E04D013E00126F6E70125F8E7A7
:10E65000684652DF052806D0002806D0124A9321CA
:10E66000FDF726FD04E0012602E0216900988847B5
:10E67000002D12D1608869460880A06861DF0528F6
:10E6800006D0002806D0084AB221FDF711FD04E0AB
:10E69000012502E0E168A0688847002ED8D0002D4F
:10E6A000CFD0F8BD50210020080302004188054862
:10E6B0000288914204D34088814201D801207047EA
:10E6C00000207047C42000201048018CC9B20129E5
:10E6D00017D1818C090714D1018D09060A0F03D1C6
:10E6E000828D1206120F0ED0090F012903D1828DDF
:10E6F0001206120F07D0032903D1808D0006000FE8
:10E7000001D000207047012070470000C00F00F0CA
:10E7100070B50E481422017851430C18256900F099
:10E72000C9FB0146E08822896D1E80184019FCF75C
:10E7300024FE07494A69824206D3824202D108690F
:10E74000002801D0002070BD012070BDD02600201F
:10E75000EC200020800701D0002070470120704786
:10E76000800701D0002070470120704730B5158820
:10E77000EC1C9C4201D90C2030BD02244C5513885E
:10E780001C255B1C9BB21380CD5413885B1C9BB271
:10E790001380012807D0022807D0032807D00428B7
:10E7A00007D0072030BD002004E0012002E0CC5457
:10E7B00001E00320C8541088401C1080002030BDA8
:10E7C00010B50448017AC90702D00078FEF712FAA2
:10E7D00010BD000088200020F8B52C49C8680A69DF
:10E7E0000C780F7989688646944600913EE000993E
:10E7F000E20055182A7836E0182353436968521C02
:10E80000C918AB78D2B2934200D100220B78022B08
:10E8100002D0032B27D123E04E680346014603E0D4
:10E82000B14204D00B46C96900291CD0F8E7002981
:10E8300019D08B4208D1C069002805D1144F012698
:10E84000BE600026B44601270E68C969D961002957
:10E8500009D00B689B190B6005E00174C06900E0EA
:10E8600000210028F9D169789142C5D12146641E62
:10E87000E4B20029BBD1054962460A61C8600F7144
:10E88000704501D00120F8BD0020F8BD1021002006
:10E8900000100140F8B5044631480026C1680091D7
:10E8A00007784EE02E48F90080680D1843E0002CF0
:10E8B00002D02046E4691FE02878182141436A68A5
:10E8C000401CC0B251182870AA78904200D12E7016
:10E8D0000A784868012A30D1027C002A2DD18A6842
:10E8E0004260CA6882600A69C260496981611C49E4
:10E8F0000979002900D04660194943680A699C4695
:10E90000991A0902174B090A994202D2826889189A
:10E9100007E06146511A09028268090A8A4202D94F
:10E92000511A016000E006604660012186600174B2
:10E93000C66101F0C1F9002CB9D128786978884204
:10E94000BAD138467F1EFFB20028ABD10448C16857
:10E950000098814201D00120F8BD0020F8BD0000E0
:10E9600010210020FFFF7F0038B50E4C20780028D2
:10E9700001D0002038BD0125AB020B4A0BA10020BD
:10E980000095FCF7D7FE002807D11023094A0AA1F9
:10E990000090FCF7A9FE002801D0082038BD2570A2
:10E9A000E7E7000032210020372800204E6F726D0B
:10E9B000616C0000372C0020496E707574000000F7
:10E9C0000FB408B504A900916A460399FCF718FF33
:10E9D00001B008BC04B01847002388B0344A0521B0
:10E9E0001846FDF7E9FB002803D0324A6221FDF703
:10E9F0005FFB314A31490320FEF7D6F8002804D0E6
:10EA0000FF212C4AEE31FDF753FB01A90020FEF750
:10EA10001BF8002804D0FF21264AF131FDF748FBFE
:10EA200068460079022840D0002069460870FDF74A
:10EA300089FF69460878FEF7F5FDFFF7F3FA2048ED
:10EA4000FEF794FCFDF7CAFA1C216846FCF793FC1C
:10EA50000521C90301910F210904002002910090B2
:10EA6000032269460A73C88108741648059016483F
:10EA700006906846FDF796FE002803D00D4AC52192
:10EA8000FDF716FB0320FDF797FD002803D00FA22A
:10EA90001249FDF70DFBFF24FC3448DF0028FCD0B1
:10EAA000044A2146FDF704FBF7E70120BDE700001B
:10EAB0008021002034C9010031CB0100CD0C0000C1
:10EAC0009023002091EC010019D201002E2E5C2E23
:10EAD0002E5C2E2E5C6D61696E2E63002E0200008E
:10EAE00010B504480822416891434160007800F065
:10EAF000A1FE10BDEC20002070B5144682880E46A1
:10EB000005462088111D4118921C994201D8FE2A01
:10EB100001D90C2070BD521C32542088FF21401CAA
:10EB200080B2208031542088401C80B2208081191E
:10EB3000288801F0FBF92188401880B22080AA883B
:10EB4000002A09D0A968002908D08019FCF7B4FB75
:10EB50002088A98840182080002070BD072070BD43
:10EB6000F8B50F46017814460546012902D16878A8
:10EB7000002806D02088821C9A422DD8012902D074
:10EB800006E00720F8BD69784118891C994223D80E
:10EB9000181A801E86B2684606802188B81C08189C
:10EBA00069467DDF0028EDD12878022805D1694625
:10EBB0000988B14201D809210AE00821012805D1BC
:10EBC0006878B04202D86A46108001E06846068044
:10EBD00068460088FE2801D90C20F8BD2288401C18
:10EBE000B8542088401C80B220803954208869465F
:10EBF000401C20800988401820800020F8BD00209B
:10EC000070470020704700207047000082000648CF
:10EC10001018026803231B049A4302600268090467
:10EC20000A43026070470000000700500349401883
:10EC30000068012800D000207047000000600040FC
:10EC40004058002800D0012070470322120280188B
:10EC50004068084000D001207047000010B500282F
:10EC60000BD0032808D10220FDF790FF002803D025
:10EC700003A2F221FDF71CFA10BD00F0B9FD10BD92
:10EC80002E2E5C2E2E5C2E2E5C6D61696E2E630026
:10EC900010B50078002809D105483B21408876DF6F
:10ECA000002803D003A2A321FDF702FA10BD000043
:10ECB000802000202E2E5C2E2E5C2E2E5C6D616935
:10ECC0006E2E63000389CA1C9A1802814289511A68
:10ECD000C91E41817047000010B501460223024A57
:10ECE0000248FFF75FF910BDA40202007021002066
:10ECF00010B5044802230168034A0448FFF752F99B
:10ED000010BD0000482100209C020200702100205C
:10ED10000021425C002A01D001207047491C0629CD
:10ED2000F7D300207047000070B505461C200D4940
:10ED300068434418204611300621FCF71AFB204690
:10ED40001021FCF716FBFF2121740020A176C0439F
:10ED50002083284601F0F0F8024A0020A9001C3A5E
:10ED6000505070BD3825002007490979490701D462
:10ED700008207047002804D0044949780160002029
:10ED800070470E2070470000EC200020D0260020A5
:10ED900070B5134B1B795B0701D4082070BD0028A8
:10EDA00017D0002A15D00368022B10D20C240D4D69
:10EDB0005C432E59002E0AD04668601904894589A3
:10EDC00040686143654371182818884203D80720BA
:10EDD00070BD0E2070BD13600020516070BD00003A
:10EDE000EC2000209C270020FEB5044626480E4655
:10EDF0000079400701D40820FEBD002C25D02068F2
:10EE0000022836D20C21214D48432958002930D000
:10EE1000401941890289406851430918606881425C
:10EE200027D9FFF797FC002811D06068019021686E
:10EE30000C2251434F1979680091401A39890D46C7
:10EE4000FCF79BFA002914D103E00E20FEBD102030
:10EE5000FEBD29463046FCF790FA002909D1002E64
:10EE600007D078890099454301984919801988424B
:10EE700001D90720FEBD00200246009033462146FE
:10EE80000320FEF7EDF8FEBDEC2000209C270020BB
:10EE900010B507484469601C06D000F00BF8014625
:10EEA0002046FCF76AFA10BD01200007406910BD3A
:10EEB0000010001001200007006980B270470000B8
:10EEC00070B5002413482546047044702846FEF7A8
:10EED000B7F86D1C0A2DF9D30F4D6C80FFF7D8FFE2
:10EEE000C61EFFF7E7FF46430A4A0020AE60CC3259
:10EEF0006C610C214143545089180C81401C4C8199
:10EF00000228F6D32C70AC610420EC61686000200C
:10EF100070BD0000D0260020EC200020FFB528485E
:10EF200081B000791F4616460C46400702D40820DF
:10EF300005B0F0BD002C1DD0019800281AD0206823
:10EF4000022815D20C211F4D4843295800290FD003
:10EF500041194A89088949684243511862689142B7
:10EF600006D9002E04D0B04202D3F119814203D950
:10EF70000720DDE70E20DBE70198FFF7EBFB002819
:10EF80001BD03846FFF7E6FB002816D06068FFF775
:10EF9000E1FB002811D060683246C1190198FCF7E6
:10EFA0008BF9009620680C2148432D58002202213D
:10EFB0002046019BA8470020BAE71020B8E70000D0
:10EFC000EC2000209C270020F8B52C4D0446287921
:10EFD0000E46400701D40820F8BD002C20D0002E9A
:10EFE0001ED0206800281BD0FFF764FF0146A088D0
:10EFF000814213D3102811D3E08800280ED0FFF7E8
:10F0000047FF471EFFF756FF4743E288A188A868DD
:10F010004A431218974201D3890703D00720F8BD4D
:10F020000E20F8BD6988022926D031600C22144BCD
:10F0300051437060CA18506020685850A0881081F1
:10F04000E0885081FFF736FF0646FFF733FFA188BF
:10F05000E288401E514340183146FCF798F90446B7
:10F06000FFF728FF0146A86861430818A860688870
:10F07000401C68800020F8BD0420F8BDEC20002072
:10F080009C270020F8B5044621481E460079154605
:10F090000F46400701D40820F8BD002F1CD0002CDB
:10F0A0001AD02168022915D20C2041431948425830
:10F0B000002A0FD008184289018940684A43101875
:10F0C0006268904206D9002D04D0A94202D3A81943
:10F0D000884203D90720F8BD0E20F8BD3846FFF757
:10F0E00039FB002811D03046FFF734FB00280CD044
:10F0F0006068FFF72FFB002807D02B463A462146D1
:10F1000001200096FDF7ACFFF8BD1020F8BD00000F
:10F11000EC2000209C27002010B5114902460878F9
:10F12000002811D004280FD0022A16D0032A0BD1B0
:10F130000A79120711D48A69521C8A61032A08D0FD
:10F14000022802D000F076FB10BD487800F04AFD9E
:10F1500010BD0D20FDF708F810BDFEF78BFE10BDA9
:10F16000EC200020F8B5044621481E4600791546DB
:10F170000F46400701D40820F8BD002F1CD0002CFA
:10F180001AD02168022915D20C204143194842584F
:10F19000002A0FD008184289018940684A43101894
:10F1A0006268904206D9002D04D0A94202D3A81962
:10F1B000884203D90720F8BD0E20F8BD3846FFF776
:10F1C000C9FA002811D03046FFF7C4FA00280CD045
:10F1D0006068FFF7BFFA002807D02B463A46214661
:10F1E00004200096FDF73CFFF8BD1020F8BD00009C
:10F1F000EC2000209C27002070B505460B48426D8E
:10F20000042A10D0016D8918042900D30021521C52
:10F210004265142251430C1811462046FCF7ABF806
:10F2200001202C6070BD002070BD0000D42700209C
:10F2300010B518481422016D51430C18406D002878
:10F240001FD02079012802D0022816D10FE0218A90
:10F25000608A091AFF2901DC8AB201E0FF2201322B
:10F26000A1688000E3680918181829DF01E02089E7
:10F2700028DF112806D0002803D00921204600F0FD
:10F280004FFA10BD0449FD220878104004221043B3
:10F29000087010BDD427002030210020F0B52B4C81
:10F2A0001C22216F85B051430D192978284E002763
:10F2B0000B00FCF75CFD07190509090D0D1119007C
:10F2C0002946FFF753F909E0294600F025FF05E03C
:10F2D0002946FEF785F801E0FEF7B0FF00282FD0A1
:10F2E000B04202D1019710E00F2001902878022847
:10F2F00001D0032809D11548AA7D7830016C8918FE
:10F300000164AA7D416C891A416469462846FEF76A
:10F310004BFD6846FEF77EFD206F1C214843001917
:10F32000FCF729F8606F00280CD0216F491C890771
:10F33000890F2167401E606704D00020FFF7AEFFF1
:10F3400005B0F0BD0420FEF775FDF9E7602C002044
:10F350001D1D000010B5054801784A07920F04D121
:10F36000022211430170FFF763FF10BD302100201E
:10F37000012252075110886B496B4143881870472E
:10F38000F8B507461D481C46007815460E4680070E
:10F3900001D40220F8BD002D01D0002C28D1052079
:10F3A000F8BD01011648405C00281ED116E0206817
:10F3B000002F03D081883A8891420FD1002E03D0CC
:10F3C00001883288914209D180682860206868608D
:10F3D0000B482030008928810020F8BDA0882146F4
:10F3E00000F060F80028E2D12060A088401CA080D6
:10F3F000A0880228D5D30A20F8BD000038210020BB
:10F40000202D0020F8B505464068244F00260C4604
:10F41000002828D022490A68824224D849688142BB
:10F4200021D3FFF79DF900281DD02889398988420A
:10F4300019D103CD083D8A68904214D13A46002084
:10F44000203A0125AD0203019B185B688B4204D270
:10F450005B198B4201D9208011E0401C80B2022848
:10F46000F1D30020F8BD268000960AE000982968B4
:10F470008068884205D10098686038892881012019
:10F48000F8BD2088694600F00DF80028EED12088EC
:10F49000401C80B220800228E6D3E2E7402D002005
:10F4A00070210020F8B50E460A681249000145187F
:10F4B000002A04D05088800084180C3401E06C6865
:10F4C00008340127BF026868C019A0420FD920681C
:10F4D000401C0CD02046FEF7D7FF002802D00120A8
:10F4E0003460F8BD6088800004190C34EBE700201C
:10F4F000F8BD0000202D002010B501460123044A6C
:10F500000448FEF74FFD002800D00E2010BD00007B
:10F51000980202007021002070B5044612480025B0
:10F52000436C002B08D0026CD500521C52072D18DA
:10F53000520F5B1E43640264A08AAB8880004118AE
:10F540000A482A68FEF72EFDA18AAA888918A18296
:10F55000A17D491E0906090EA17501D10121217461
:10F56000002800D00E2070BDD82C00207021002073
:10F5700070B501240B49600408600B494010886095
:10F58000094940398860094D6C602F20FBF7EAFD7E
:10F59000AC60074D00242F202C61FBF7E3FDEC70DD
:10F5A00070BD000080E100E0401301400010014008
:10F5B0001021002030B50A48FF21C57D0022094CEA
:10F5C0000931094B002D625007D09969437EC2680A
:10F5D000D154417E491C417630BD986930BD000050
:10F5E000B426002000200040002500401FB5012364
:10F5F0006A46137010720348019106C86846904726
:10F600001FBD0000B426002038B50446094800900C
:10F61000A0420DD0FFF7ACFE0546234606A1002010
:10F62000009AFFF7CDF92A1B10A10020FFF7C8F9B7
:10F63000002038BD8020002052414D2053544152BB
:10F6400054204144445220307825782073686F75E7
:10F650006C642062652061646A75737465642074EB
:10F660006F20307825780D0A0000000052414D20AF
:10F6700053495A452073686F756C64206265206138
:10F68000646A757374656420746F203078257820FF
:10F690000D0A000010B50121202805DA1A4A814020
:10F6A000114201D1194810BD8107C90E002808DA9E
:10F6B0000207120F083A9208154B9200D218D2692D
:10F6C00004E08208134B9200D2181268CA40110657
:10F6D000890F042911D200290FD002290DD00E491B
:10F6E0004C68C306DB0E01229A40002C08D040096A
:10F6F00080000B5813430B5004E00448401C10BD1D
:10F7000006480260002010BDFC06FFBC012000007E
:10F7100000ED00E000E400E06421002000E100E0F2
:10F720000EB500220092019202920379012B02D0C1
:10F73000022B11D106E06B461A70C2680192028A50
:10F740001A8109E001236A46137002894389D31A9A
:10F750006A4693800389D380006882686846904730
:10F760000EBDFFB50746806A81B0144600283DD023
:10F77000002538462030009033E00C20B96A6843F9
:10F780000E18B088801CFE2802D90C2005B0F0BDF0
:10F7900022880299401C885420881622401C80B27E
:10F7A000208002990A542088401C80B2208002994F
:10F7B0004118308800F0BAFB2188401880B22080C0
:10F7C000B288002A0AD0B16800290FD0029BC01865
:10F7D000FBF772FD2088B188401820806D1C0098CE
:10F7E000EDB2007BA842C8D80020CFE70720CDE7C4
:10F7F00010B50020FDF7CAF9002803D009A2D821CE
:10F80000FCF756FCFDF786F9002803D005A2DC21A1
:10F81000FCF74EFC3CDF002803D002A2E021FCF7FD
:10F8200047FC10BD2E2E5C2E2E5C2E2E5C6D616969
:10F830006E2E630010B50F490028087009D001280A
:10F8400011D0022812D0032802D14869FEF752FBDA
:10F8500010BD00208861C861074840780028F7D0B3
:10F86000FDF7D2FB10BD00F075F910BD00F0D4F823
:10F8700010BD0000EC200020D0260020002803D07E
:10F880000249C860002070470E20704750210020B8
:10F890007CB50446144801900246009013A1002054
:10F8A000FFF78EF86946204660DF0446019900980C
:10F8B00088420ED0FFF75CFD054615A10020009A96
:10F8C000FFF77EF8009821A12A1A0020FFF778F8A8
:10F8D00007E0002C05D0224626A10020FFF770F893
:10F8E000FEE720467CBD00008020002073645F623C
:10F8F0006C655F656E61626C653A2052414D2053C4
:10F900005441525420617420307825780D0A00004B
:10F9100073645F626C655F656E61626C653A2061FD
:10F9200070705F72616D5F626173652073686F757F
:10F930006C642062652061646A7573746564207408
:10F940006F20307825780D0A0000000072616D206C
:10F9500073697A652073686F756C642062652061D5
:10F96000646A757374656420746F2030782578201C
:10F970000D0A000073645F626C655F656E61626CA6
:10F98000653A206572726F7220307825780D0A0012
:10F9900070B50E460546144614211046FBF7EBFCE5
:10F9A0000120002120802161217326726572002DC3
:10F9B00000D0A072002070BD10B5FCF76BFB10BD2D
:10F9C000FFB581B01D4616460C46FEF7CDFF002C54
:10F9D00001D0A00702D0072005B0F0BD2046074C9B
:10F9E0000127A060668065600549019810DF002846
:10F9F000F2D127701620FFF74DFEEDE750210020D1
:10FA0000B9F90100002803D00249086100207047BD
:10FA10000E20704750210020F8B5164C1422606863
:10FA20004008400060601448017851430E1837695F
:10FA3000FFF740FA01463846FBF79FFC0546606138
:10FA4000FFF738FA0146F0887F1EC019FBF795FCD6
:10FA500002228542606801D1104300E0904360605B
:10FA6000E1681040084303D0002000F0BBF8F8BD67
:10FA70000220FAE7EC200020D026002010B5024832
:10FA80004069FEF737FA10BDEC20002010B5FFF7F3
:10FA9000FFF9441EFFF70EFA4443FFF70BFA04493F
:10FAA0004A69521E5043CA682146FEF728FA10BD23
:10FAB000EC200020F8B510481422017851430C18AE
:10FAC0002569FFF7F7F90146E08822898018401977
:10FAD000FBF753FC0F46FFF7DBF9461EFFF7EAF989
:10FAE0004643E0882289F1198018044A40191269B6
:10FAF000FEF705FAF8BD0000D0260020EC2000201B
:10FB000070B5FFF7D7F90546FFF7C2F9441EFFF7B6
:10FB1000D1F960432946FBF730FCFEF7EBF970BDE5
:10FB200070B5FFF7C7F98608FFF7C4F907494969B7
:10FB300048430446FFF7ACF9451EFFF7BBF968439D
:10FB400032462146FEF7DBF970BD0000EC200020B4
:10FB50000020704770B514481422017851430C18E6
:10FB6000241DFFF7A7F96188104E884211D2FFF7D4
:10FB7000A1F961880D1AFFF79DF98208A188E06854
:10FB80004018216940194919FEF7B9F9FFF792F9B0
:10FB900007E0A288E06880188A082169FEF7AFF9BB
:10FBA0006088F06170BD0000D0260020EC200020AD
:10FBB00010B505480079000703D4012000F012F8C1
:10FBC00010BD00F003F810BDEC20002010B5044873
:10FBD0000822416891434160407800F003F810BD6D
:10FBE000EC20002002494870024980000858004774
:10FBF000EC2000207002020010B50446FFF78CFADA
:10FC00002046FCF78DFC10BD10B5054800790007B3
:10FC100002D4FDF7E7F910BDFFF7D8FF10BD0000D3
:10FC2000EC200020FEB51F4C00252769E0680290FB
:10FC30006846FEF799F80190FEF7CEFD064601985A
:10FC4000002822D000230098E16817E00E680A46D9
:10FC5000864202D9301A086012E0801BF318002691
:10FC60001660D668D169B446002E07D0FE18360259
:10FC7000360A566066469660D56115460029E5D17C
:10FC80002846E160FEF706FE06E02846FEF702FE83
:10FC9000002801D1002E02D00298FDF725FA00209D
:10FCA0002071FEBD102100200120024900050860DE
:10FCB0007047000000E200E010B50E4BD968002943
:10FCC00006D002680C68A24204D8A21A0A60C16178
:10FCD000D86010BD0B4604E00B46C969121B002911
:10FCE00004D00C689442F7D3A41A0C600260C1617E
:10FCF000D86110BD10210020F8B51E4DEC68002C15
:10FD000037D01D48002740682969401A0602360A84
:10FD10002068B0421BD8361AC7192246107CE46905
:10FD2000002812D0002010746B69002B0AD0916952
:10FD300050699847002808D0FF2110A26631FCF7CF
:10FD4000B7F902E0516990698847002CE0D16978E1
:10FD5000A878814206D1401CC0B2A870022801D107
:10FD60000020A87003490006800D18310F50FFF7DE
:10FD70009BFFF8BD10210020001501402E2E5C2EA7
:10FD80002E5C2E2E5C2E2E5C2E2E5C2E2E5C636F37
:10FD90006D706F6E656E74735C6C696272617269AE
:10FDA00065735C74696D65725C6170705F74696DB8
:10FDB00065722E6300000000FF2107481D310022FC
:10FDC00042500648828A8168895C828A521C8282FB
:10FDD0000348C1617047000000200040B4260020A5
:10FDE000002500401FB500216A46117010720448BA
:10FDF00082680192817506C8684690471FBD000061
:10FE0000B4260020F0B5454D012185B049022846B1
:10FE1000FEF71BFF01270026414C002824D0FF21BC
:10FE200025312846FEF70CFF00281DD0FF20253085
:10FE30002E5081203B4980008860A07E002800D1A0
:10FE40006F600221684601703749086808600390B6
:10FE5000E17D68460172E0680190E675267606CC81
:10FE60006846083C90472BE004212846FEF7EDFE4B
:10FE7000002825D0FF2109312846FEF7E1FE0028A1
:10FE80001ED0FFF797FBE07D617E884218D1207E6F
:10FE9000002808D0627EE168E0752069E06026767F
:10FEA000667610460AE0A07E002800D16F608120AF
:10FEB0001C4980008860E675607EE168FFF796FB6C
:10FEC000FF211D312846FEF7BBFE00280DD0A18A78
:10FED000A07D814202D2FFF76FFF06E0FF211D31B6
:10FEE0006E50002801D0FFF77DFFFF2145312846E5
:10FEF000FEF7A6FE00280ED0FF2045302E50A07E33
:10FF0000002800D02F60E07D002804D0E675607ED8
:10FF1000E168FFF76BFB05B0F0BD0000002000407A
:10FF2000B426002000230040802400400870000A0E
:10FF30004870022070470000012181400248426859
:10FF40008A43426070470000D420002038B515492C
:10FF5000154A488890420FD04A78144C521CD2B2AD
:10FF60004A70237B934208D3091D75DF002803D014
:10FF7000A169002900D0884738BD00254D70217C3B
:10FF8000002907D03B2176DF002803D0A169002992
:10FF900000D0884761690029EED06846057088471F
:10FFA00038BD0000C0200020FFFF00000025002019
:10FFB000EFF30580C005C00D1AD0103840B20028FC
:10FFC00008DA0107090F083989080C4A89008918DD
:10FFD000C96904E081080A4A89008918096880070C
:10FFE000C00EC1400806800F012803D0032803D0AB
:10FFF00002207047002070470120704700ED00E0AC
:020000040002F8
:1000000000E400E042788378521CD2B2934200D1DF
:1000100000220378934201D1002070470A704168A2
:1000200040781822504308187047FFB583B0164631
:100030000C9D0D9C1F46022200950194039800F030
:100040000CF8002807D13B46102231460095019458
:10005000039800F002F807B0F0BDFFB583B0074683
:1000600000200C9C8646268805463AE07868A90060
:1000700042181188684681805188C18000226946F3
:1000800001A865DF002839D16846017805988142CA
:1000900026D17046002801D0002200E002222088EC
:1000A000891842180D998A4227D8714600290AD129
:1000B000401C80B22080069A049911542088401C6C
:1000C000208001208646218806980A18694601A8E2
:1000D00065DF002812D16946208809784018208001
:1000E0006D1C3888A842C1DC704600280AD02088E0
:1000F000801B401E80B2FF2802D90C2007B0F0BD43
:10010000069988550020F9E70179002902D1007B82
:10011000002800D001207047F8B50C46498A344ABF
:1001200009018E18002805D0E1883046FEF7CAFD87
:100130000120F8BD3189706889004518217C2C4860
:100140000027D8380B00FBF712FE070F2F1A2905DE
:10015000414F51004760A169016025486946D83880
:10016000FFF750F9002808D029460123221D214815
:10017000FDF718FF0221217422E00A20F8BD224673
:10018000294601230C3208311A48FDF70BFFA17DE7
:10019000002901D0032212E0012210E02946204666
:1001A000FFF7BAF9074617E0224601230832291D56
:1001B0001048FDF7F7FE2178032905D006222274A6
:1001C00000280FD00E2709E00522F8E74068FFF766
:1001D00093F9074606202074002F03D0E1883046AB
:1001E000FEF770FD3846F8BD034FF7E70F27F5E738
:1001F000202D0020702100201D1D0000010000079F
:100200009E9E9BD4A4E6ACA79C49A4F7FDDD1611E5
:100210009E9E9BD4A4E6ACA79C49A4F7FDDD1611D5
:100220009E9E9BD4A4E6ACA79C49A4F7FDDD1611C5
:100230009C230020BC230020E0240020FFFFFFFFC0
:1002400007EC010079E1010095E0010035E20100D1
:1002500003EC010049E1010091E001002DE2010001
:10026000FFEB010099E001008DE0010025E20100B3
:1002700001FB010021FB01007DFA0100B5FA01003C
:100280008DFA0100B1FB010045D30100F1D201005C
:1002900009FC010011E401000000FFFFDEC0ADDE3B
:1002A000FF011EF1DEC0ADDEFE011EF13031323342
:1002B0003435363738394142434445462E2E5C2E7C
:1002C0002E5C2E2E5C2E2E5C2E2E5C2E2E5C636FF2
:1002D0006D706F6E656E74735C626C655C64657680
:1002E0006963655F6D616E616765725C646576699F
:1002F00063655F6D616E616765725F70657269707D
:10030000686572616C2E63002E2E5C2E2E5C2E2E84
:100310005C2E2E5C2E2E5C2E2E5C636F6D706F6ECD
:10032000656E74735C736F66746465766963655C2F
:10033000636F6D6D6F6E5C736F6674646576696311
:10034000655F68616E646C65725C736F667464652A
:10035000766963655F68616E646C65722E63000028
:1003600080030200802000200001000004B1010091
:100370008004020080210020B820000020B101008C
:100380000000FFFFC0D102000000000000000000DC
:10039000000000000000000000000000000000005D
:1003A0000000000000000000FFFF0000000000004F
:1003B000000000000000000000000000000000003D
:1003C000000000000000000000000000000000002D
:1003D000000000000000000000000000000000001D
:1003E000000000000000000000000000000000000D
:1003F00000000000000000000000000000000000FD
:1004000000000000000000000000000000000000EC
:1004100000000000000000000000000000000000DC
:1004200000000000000000000000000000000000CC
:1004300000000000000000000000000000000000BC
:1004400000000000000000000000000000000000AC
:10045000000000000000000000000000000000009C
:100460000000000000000000000000000024F40074
:10047000000000000000000081DF010003FF000019
:040000050001B0C185
:00000001FF
